:10000000900B0010B9020000B5020000B50200001C
:1000100000000000000000000000000000000000E0
:10002000000000000000000000000000B502000019
:100030000000000000000000B502000029020000DE
:10004000B7020000B7020000B7020000B7020000CC
:10005000B7020000B7020000B7020000B7020000BC
:10006000B7020000B7020000B7020000B7020000AC
:10007000B7020000B7020000B7020000B70200009C
:10008000490B0000B7020000B7020000B7020000F1
:10009000B70200007D030000000000000000000027
:1000A000B7020000B7020000B70200000000000025
:1000B000B7020000B7020000B7020000B70200005C
:1000C000014B18687047C046E0060010014B1860ED
:1000D0007047C046E0060010D021102008B5074B3D
:1000E0001960074B1A6882431A60064A11601A6841
:1000F000B0390A431A6000F04FFD08BD9440044037
:1001000000800150A0400440074B1A6853425341FD
:10011000DBB2064A002B04D01168002901D101315D
:10012000516013607047C04640000150B801001094
:10013000024B186843425841C0B27047400001501A
:100140000020034B5A68824201D05860013070474A
:10015000B801001008B500F0A3F9054A054B0648A0
:100160001A60064A064B07491A6000F009FB08BDF1
:1001700061040000E806001036230000350400008A
:10018000E40600104923000008B5011C044801F0F2
:10019000C7FF0722034B01381860034B1A6008BDE4
:1001A00000366E0114E000E010E000E0034B1A6836
:1001B00010181A688242FCDD7047C046E006001045
:1001C00008B50A235843FFF7F1FF08BD0221084A8A
:1001D00013680B431360074A491813680B431360F5
:1001E000054A013913680B43136030BF7047C0469E
:1001F0000080034010ED00E03882044008B5074B52
:10020000074A1B68002B00D1936093680133936009
:10021000044A934201DDFFF7D9FF08BD40000150B9
:10022000B8010010400D030008B5064A13680133F9
:10023000136001F001F8FFF767FF00F0EFFCFFF734
:10024000DDFF08BDE00600100022014B9A607047F8
:10025000B801001008B500F0A7FEFFF73DFF104AF7
:10026000104B1A600722104B1A60FFF773FF0F4BF9
:100270001B68002B0BD16420FFF798FFF7E701F014
:1002800047FA01F0A5F801F073F901F087FD08487D
:10029000322101F065F80028F1D101F062FCF6E7A7
:1002A000CF07000014E000E010E000E04000015043
:1002B00004230000FEE7FEE70022012403261E4B74
:1002C0001E481A601E4B1F4D02601A601C60296890
:1002D000B143214329601C490A601C490A600C6033
:1002E00081211B4A7F3411601A490A68A2430A60BF
:1002F0001A1C0121184B1B680B42FAD0174B1960CE
:10030000032303600023136011601549154A11602F
:10031000154A16499A188A4204D21549C958043315
:100320001160F5E7134B144A934202D2002204C332
:10033000F9E7FFF78FFFFEE750810440708004402B
:100340007480044010C00340408004404480044056
:1003500008800440388204400C80044078800440C7
:100360005F0001008080044000000010B801001010
:10037000E0290000B80100108C07001070B5254B73
:100380001B68DBB2DA0743D407221340022B1CD0D0
:10039000214C042B38D12148051C438881889BB20D
:1003A00089B22268D2070BD51D4A12687F29F8DC72
:1003B0005E1CD2B2EB181A727F2301313340F0E792
:1003C0009AB28BB242808380D9E716498A890C1C85
:1003D00092B2002A16D0101C0B8910389BB25D1CFB
:1003E000E3181B7C0E4EDBB233607F23013A2B40B7
:1003F000824202D0002AF2D1101C9BB280B20B8143
:100400008881BCE7CA81BAE72368054B1B68B6E759
:1004100070BDC0460880004014800040C401001038
:100420000080004044020010014B988880B2704761
:10043000C4010010094B9A88002AFBD01A8892B296
:100440009918087A7F2101320A40C0B21A8072B628
:100450009A88013A92B29A8062B67047C40100103D
:100460000D4B9A897F2AFBD872B6DA89002A0CD004
:100470005A8992B2991808747F2101320A405A8130
:100480009A89013292B29A8103E00122DA81034B08
:10049000186062B67047C0464402001000800040F9
:1004A00010B572B6D1238021194A49011360194A47
:1004B00004241360184A194813680B43136002227E
:1004C000174B18491A608323174A136000230B60E7
:1004D000046016488134046003201060144A84309C
:1004E0001060144A07381060134A138153819381B6
:1004F000D381124A138053809380C02207330B604C
:100500000F4B1A7080220F4B92031A6062B610BD17
:10051000A8400440A4400440808004400080004083
:1005200098800440048000400C80004028800040F7
:10053000088000403080004044020010C4010010D8
:1005400015E400E000E100E010B5041E0A2C02D121
:100550000D20FFF7F9FF074A1368002B03D0591C41
:1005600011601C7005E0044B1B68002B01D0201C9F
:10057000984710BDD4020010E806001010B5041C06
:100580002078002803D00134FFF7DEFFF8E710BD24
:10059000F0B5071C0C1C8BB03878002800D1DCE0CB
:1005A000252801D0013776E07E78302E03D1FB1C60
:1005B000BE78012207E02D2E02D0BB1C002202E0F3
:1005C0000222BE78FB1C009200220292321C303ABA
:1005D0001F1C092A08D80A2202994A439619303E5C
:1005E00002961E780133F1E72022311C91430A1E46
:1005F0004C2A05D10099483A11431E7800910137E1
:10060000002E00D1A9E0331E602B01D9203BDBB2C4
:100610004F2B14D008D8432B33D0442B3FD0022289
:100620000392422B3DD035E0552B38D0582B2FD09C
:10063000532B2FD12568231D01932B1C01E0082289
:100640002EE05C1B01335A1E1278002AF9D1009B60
:100650009B0709D4029B661C9C4204D22020FFF712
:1006600073FF341CF3E7341C281CFFF787FF029B41
:100670009C4201D3019C8FE72020FFF765FF0134E6
:10068000F5E72068231DC0B20193FFF75DFFF1E796
:10069000102205E0301CFFF757FF0194EAE70A2219
:1006A0000392221D01922568442B06D1002D04DA05
:1006B0000823009A6D421A43009200230493281CD9
:1006C000039901F023FD281CCBB20C1C0399059360
:1006D00001F096FC051C092C07D92723782E00D0A1
:1006E000203B059A9B18DBB20593049B04995C1C84
:1006F000059B06AA30335354002D03D0102C01D093
:100700000494DCE7009B1B0703D52D2306AA135591
:10071000013430230393009BDB0701D42023039390
:10072000251C009B9B0709D4029B6E1C9D4204D292
:100730000398FFF709FF351CF3E7351C013C06ABB6
:10074000185DFFF701FF002CF8D1029B9D4291D26A
:100750002020FFF7F9FE0135F7E70BB0F0BD074B9E
:1007600070B50D1C1C1C1E6818602878002803D06A
:100770000135FFF7E9FEF8E7266070BDE8060010D6
:100780000FB407B504A901C90191FFF701FF03B038
:1007900008BC04B018470EB417B505A908C9074C22
:1007A00001912060181CFFF7F3FE002322681370EC
:1007B000236017BC08BC03B01847C046D402001021
:1007C0000EB433B5064C05A908C925682060181C6D
:1007D0000191FFF7DDFE256033BC08BC03B018476C
:1007E000E806001070B5041C1D481E1C151CFFF700
:1007F000C7FF022E1FD0042E26D0012E2BD1261C7F
:10080000331BAB4205DA31781648FFF7B9FF0136E2
:10081000F6E72020FFF798FE261C331BAB421ADABE
:1008200033782E201A1C203A5E2A00D8181CFFF7B5
:100830008BFE0136F1E721880B48013DFFF7A0FF51
:100840000234002DF7D106E0084802CC013DFFF745
:1008500097FF002DF8D10A20FFF776FE70BDC04645
:100860004F230000562300005C2300006223000099
:10087000F7B50024144D061C2B680191A3420AD140
:1008800000201FE00D2817D0082809D1002C02D025
:10089000013CFFF759FE2B6898470028F2D1EFE79B
:1008A0001F28F8DD019B013B9C42F4DA3055671CA0
:1008B000FFF74AFE3C1CEEE700230A203355FFF702
:1008C00043FE0120FEBDC046E406001038B5044CCE
:1008D00025682060081C111CFFF7CAFF256038BD81
:1008E000E40600100023021C70B50B60106803784A
:1008F000202B02D101301060F8E700252D2B03D109
:10090000431C136043780135302B1BD11068431C06
:1009100013604378622B06D0782B09D1831C1360B7
:100920008378102613E0831C1360837802260EE080
:100930000120202B29D9181C30380826092806D96F
:10094000002022E0181C30380928F9D80A26002493
:10095000202B15D9602B01D9203BDBB2181C303875
:10096000C0B2102803D9373BD8B20928E8D9B04221
:10097000E6D2744313680419581C10605B78E7E7EB
:10098000002D00D0644201200C6070BD372300B5FB
:100990008BB00093684605A9024B984706980BB0A8
:1009A00000BDC046F11FFF1F362300B58BB000937A
:1009B000684605A9024B984706980BB000BDC04693
:1009C000F11FFF1F3A2300B58BB00093684605A9BD
:1009D000024B984706980BB000BDC046F11FFF1FA1
:1009E000352300B58BB0009301900291684605A9AC
:1009F000024B984705980BB000BDC046F11FFF1F82
:100A0000342300B58BB00093054B01900291039302
:100A1000684605A9034B984705980BB000BDC04632
:100A2000C05D0000F11FFF1F322300B58BB00093A3
:100A300001900291684605A9024B984705980BB0B2
:100A400000BDC046F11FFF1F332300B58BB00093DC
:100A5000054B0191029004936846039205A9034B4C
:100A6000984705980BB000BDC05D0000F11FFF1F47
:100A7000382300B58BB00093019102900392684631
:100A800005A9024B984705980BB000BDF11FFF1F49
:100A900038B5051C07200C1C011CFFF7A1FF00281E
:100AA00006D10720011CFFF7BFFF00280ED01FE072
:100AB0000720011CFFF7B8FF00281BD10730011CDD
:100AC000FFF79EFF0028ECD0022016E0E021281C52
:100AD000C901221CFFF7B8FF00280DD1E021281C16
:100AE000C901221CFFF7C4FF002807D0052004E03D
:100AF000032002E0012000E00420404238BD08B598
:100B000072B6FFF7C5FF62B608BDE020C0017047AE
:100B1000802040017047C046054B20211860054BDE
:100B20001A68002801D00A4300E08A431A6070471F
:100B3000D802001000800150024A1368DB431360A2
:100B40007047C04680000150074B10B51A681C1C46
:100B5000D30707D5054B1B68002B01D0FFF7ECFF2F
:100B60000123236010BDC04600C00040D802001021
:100B7000034B1A68002A01D101321A607047C0463F
:100B800004C00040034B1A68002A01D000221A60FA
:100B90007047C04604C0004008B50023134A1449FA
:100BA00013700A60134A20211360134A1360D02285
:100BB000124B1A60124A13688B431360114A60315A
:100BC00013680B43136017220F4B1A600F4B1B3235
:100BD0001A600F4B2F3A1A6080220E4B52021A6095
:100BE00001220D4B1A70FFF7C3FF08BDF806001075
:100BF000EC060010F4060010F0060010A0400440BF
:100C000000800150808004400CC0004018C00040AB
:100C100014C0004000E100E010E400E0694BF7B5CB
:100C20001868002805DD01381860002800D0C7E0EA
:100C300015E0654A1368002B08DD013B1360BFE037
:100C40003E280FD1614A136801331360604D2C6850
:100C50002A1C611C296020780028F1D12C60FFF744
:100C60005BFFADE03C2803D1584A1368013BECE739
:100C70002023061C9E43331E4F2B05D1A31C2B6043
:100C80006378524A303BE0E72028DFD04C2E17D162
:100C9000A31C2B6067781020391C3039019301F0B8
:100CA0003FFA4A4E7060312FD0D1E31C2B60A378FD
:100CB000362B02D1353B7360C8E7019B2B60C5E73B
:100CC000432E0FD0442E0FD0452E0FD0462E0FD0DE
:100CD000472E0FD0412E0FD0422E0FD0522EB5D11D
:100CE000533B0CE000230AE0022308E0042306E063
:100CF000052304E0072302E0092300E00B23A01CE6
:100D0000106060782B2801D1013304E02D2801D137
:100D1000013B00E0116015682C49681C10602878C0
:100D20004C6832280ED034280ED038280ED0312806
:100D30000ED02E2804D1E00F00194010241808E02E
:100D4000156006E0082404E0042402E0022400E028
:100D500010241068451C156005782E2D04D1E20F73
:100D600012195210A41806E0362D01D1102C01D012
:100D7000106000E00124002B0BDB0C2208684243CA
:100D80009B185A1C01D03B2B05DD0020FFF7C4FE49
:100D90000EE05A1CF9D09B00C9188A680D4B20211F
:100DA0001A6001220C4B1A600C4A13680B43136043
:100DB000C8239B005C43034B1C60034BE4101C6086
:100DC000F7BDC046F0060010F40600100000001049
:100DD000EC06001018C00040D8020010008001503E
:100DE0000023C15C094AD154C15C002902D00133FF
:100DF000802BF6D1064B1A600322064B1A60013293
:100E00005A600022044B1A607047C046F806001072
:100E1000EC06001000000010F0060010002210B5D3
:100E20008C5C835C002C05D0002B05D0A34203D141
:100E30000132F5E7012000E0002010BD0023027818
:100E4000303AD1B2092904D80A214B4301309B180A
:100E5000F5E7181C7047031C10B51C781A1A002CF3
:100E600003D08C4203D00133F7E701225242101C19
:100E700010BD10B5041C0134631E1878002802D080
:100E8000FFF7EEFAF7E70A20FFF7EAFA10BDF0B530
:100E90000023051CEA5C101C3038092804D92020E6
:100EA0008243413A052A02D80133102BF2D10122A4
:100EB0001A409B1858100B1C08225C1A121A9442F4
:100EC00003DA1A5C1A700133F6E7002489182A5DE8
:100ED000131C303B092B07D9313B052B03D9131CBD
:100EE000413B052B11D80A3362108A18E60703D557
:100EF0000F271678BE4303E00F2617781B013E40EC
:100F0000334301341370102CE1D1F0BDF7B50C1C44
:100F10000A1C01900834002313700132A242FAD156
:100F2000019AD25C141C303C092C0AD9313C052CA6
:100F300001D8573A04E0141C413C052C1FD8373A1D
:100F4000141C01229446171CDD105E10023216405C
:100F5000AD00AD196646AE401F40BF00F5B2032696
:100F6000201CB61A3041061CF00703D5C819865C50
:100F70002E438654013AF2D20133102BD0D1F7BD63
:100F8000084A5168136811609168D8025160D168AD
:100F90004340C80C484058401B0A58409160D060FC
:100FA0007047C046FC000010F7B50020554B187084
:100FB0000026554BC31801301E700828F8D1D021E7
:100FC00080248027514BBF001960514BBC461A68E2
:100FD000802522431A604F4A703C11601A68ED0068
:100FE00022431A604C4A0C3C11601A6802431A6092
:100FF0004A4A11601A6822431A60494A1160494AF4
:1010000014683C431460484C013F21601468FF3F62
:101010003C431460454C21601C6827431F606746B1
:10102000434C21601C683C431C60D124414F3C6010
:101030001F682F4380251F603F4F2D013C601F68B4
:101040002F4320251F603D4F39601F682F431F60CD
:101050003B4F396040271968394319600121394BEA
:101060001C6013680B431360374B49181C601368EE
:10107000194311600421354B1C6013680B43136046
:10108000334B1C601368184310603248058842884F
:101090008188C3880127304CBC46345D2E4F0197B0
:1010A000632C05DC6746A740BCB22543224305E01C
:1010B0006746643CA740BCB221432343019F0124FF
:1010C0000837BF5D632F03DCBC40224392B203E0CC
:1010D000643FBC4023439BB20136082EDAD1C38063
:1010E000058042808180A02012B2C00592001218B3
:1010F0002DB215601BB2194A9B009B1809B21960EA
:10110000F7BDC04678070010790700105040044032
:1011100000800050304004402C4004401C400440FB
:1011200038400440008001501440044060400440B6
:10113000644004406840044074400440344004402B
:101140004C400440784004407C40044080400440CF
:1011500090400440DC0200106923000000000150B0
:10116000C243CB43D217DB1770B519401040072894
:1011700000DD0720072900DD0721204B1A89002AFE
:1011800002D10732101A11E012B2022A02D105323E
:10119000511A0BE0012A06D0032A07D10432541A4F
:1011A000111A201C02E0021C081C111C144E002203
:1011B0009D5E7118097A04229C5E0122632902DC7B
:1011C0008A40154302E064398A401443315C0122AD
:1011D000632902DC8A40954302E064398A409443E3
:1011E00002215A5EA0219200C905521815600622FC
:1011F0009B5E044A9B009B181C6070BDDC020010C3
:101200006923000000000150094A0221535EA02119
:101210009B00C9055B180020115E19600621535E12
:1012200004499B005B180421525E1A607047C04657
:10123000DC02001000000150072310B50A4C207892
:10124000C1081840094B5B5C0341DB0702D5FFF77F
:1012500087FF01E0FFF7D8FF23780133DBB2402B93
:1012600000D10023237010BD78070010790700100B
:101270000023C15C024AD1540133082BF9D17047D5
:10128000790700100023034AD25CC2540133082BB3
:10129000F9D1704779070010072318401940063B21
:1012A0008B40191C024A135C194311547047C04605
:1012B00081070010072318400B4001219940024A82
:1012C000135C8B4313547047810700100023021CEA
:1012D000511E8A4103495242CA540133082BF6D1A8
:1012E0007047C0468107001008B50249FFF70EFE9F
:1012F00008BDC0468107001008B50248FFF7B8FFD7
:1013000008BDC04681070010F0B587B0029104A95E
:10131000019203930025FFF7F9FD039B9D421DDA1F
:10132000019C019BE71A0C9B9F4215DA029BEE1869
:10133000072E0FD8072C0DD8301C211CFFF7BAFF41
:1013400004ABEB5C3B411F1CFB0703D5301C211C8D
:10135000FFF7A2FF0134E4E70135DEE707B0F0BD97
:10136000F0B50A2685B000900191009D019A009B7E
:10137000083AEB1A934220DAFEF766FF02A8FFF75D
:1013800081FF0120FFF7A2FF281CFFF771FF02ABCE
:1013900019780E48FFF7F4F95A270120FEF710FFDD
:1013A000FEF7CEFE041E0DD1FFF73EF800280AD14D
:1013B000013F002FF1D10135D8E7013E002ED4D1F5
:1013C000FEF704FF0124201C05B0F0BD43260000F9
:1013D00038B55848FFF704FDFEF7B2FE5648FFF750
:1013E00083FFFFF789FFFEF7ABFE0028F6D0002051
:1013F000FEF76CFE0A20FEF7E3FEFEF799FE041EE0
:1014000005D0FEF75DFE4D4B9842F3DD38BD4C4DE7
:10141000281CFFF7E5FC4B48FFF766FFFFF76CFF62
:10142000FA208000FEF7CCFE281CFFF7D9FC4648C6
:10143000FFF75AFFFFF760FFFA208000FEF7C0FEBB
:10144000281CFFF7CDFC4148FFF74EFFFFF754FF84
:10145000FA208000FEF7B4FE3D48FFF7C1FC3D488E
:10146000FFF742FFFFF748FFFA208000FEF7A8FED3
:101470000120FFF72BFFFFF73FFF201CFEF726FEA2
:10148000FEF75EFEFEF75CFE0028FBD03248FFF759
:10149000A7FC0720E11020400134FFF70BFFFFF706
:1014A0002BFF402CEED12D48FFF79AFC2C48FFF77C
:1014B0001BFFFEF705FE2B4D011C281CFFF760F9F2
:1014C000FEF7FEFDC117890E09188911264800F0A4
:1014D00027FE041C281C211CFFF752F9FA2C00D906
:1014E000FA240A21201C00F08BFD204D8000405979
:1014F000FFF7FAFE0620011CFFF7CEFEFFF7FCFE09
:10150000FA208000FEF75CFE201C0A2100F0FEFDA0
:1015100089004859FFF7E8FEFFF7EEFEFA20800049
:10152000FEF74EFEFFF7E8FEFA208000FEF748FEC9
:101530004FE7C046552600005B260000102700003C
:101540006C2600006E2600007F260000902600001A
:101550004C270000A1260000B2260000B62600009D
:10156000BC26000032280000A08601000C010010FB
:1015700038B55748FFF734FCFEF7E2FD5548FFF752
:10158000B3FEFFF7B9FEFEF7DBFD0028F6D0002022
:10159000FEF79CFD0A20FEF713FEFEF7C9FD041EB0
:1015A00005D0FEF78DFD4C4B9842F3DD38BD4B4D19
:1015B000281CFFF715FC4A48FFF796FEFFF79CFE34
:1015C000FA208000FEF7FCFD281CFFF709FC4548C7
:1015D000FFF78AFEFFF790FEFA208000FEF7F0FD8D
:1015E000281CFFF7FDFB4048FFF77EFEFFF784FE57
:1015F000FA208000FEF7E4FD3C48FFF7F1FB3C4891
:10160000FFF772FEFFF778FEFA208000FEF7D8FDA4
:101610000120FFF75BFE3748FFF766FEFFF76CFE21
:10162000201CFEF753FDFEF78BFD051E49D0002C54
:1016300047D13148FFF7D4FB201CFFF747FEFEF7E8
:101640003FFD2E4900F06CFD6430C317C4182C48D0
:101650005C40FFF7C5FB2B48FFF746FEFEF730FD69
:10166000294D011C281CFFF78BF8281C211CFFF7B3
:1016700087F80A21201C00F053FD244D80004059BA
:10168000FFF732FE0620011CFFF706FEFFF734FECF
:10169000FA208000FEF794FD201C0A2100F026FEAF
:1016A00089004859FFF720FEFFF726FEFA20800048
:1016B000FEF786FDFFF720FEFA208000FEF780FD92
:1016C00057E7FFF719FE0A20FEF770FD2C1CAAE76A
:1016D000CD260000DA260000102700006C2600004E
:1016E0006E2600007F260000902600004C27000098
:1016F000A1260000EB260000FC260000C8FBFFFF2F
:10170000B6260000BC260000322800000C010010A4
:10171000F0B595B0A548FFF763FBFEF711FDA44DAA
:10172000281CFFF7E1FDFFF7E7FDFEF709FD0028A4
:1017300002D1FFF725FCF2E70020FEF7C7FC0A20E4
:10174000FEF73EFDFEF7F4FC002806D0FEF7B8FCDD
:10175000984B9842F3DD15B0F0BDFEF7B7FC964B01
:1017600010AA181C52C852C2111C026810330A6019
:101770000EAA03CB03C29148FFF732FB08240020D6
:10178000FFF7A4FD0826221C281C083A0021331C60
:101790000096FFF7B9FD221C89480021331C0096F2
:1017A000FFF7B2FDFFF7A8FD14206043013C28308D
:1017B000FEF706FD002CE2D1FFF7E2FB0323184001
:1017C0000490FFF7DDFB012318400390FEF7B8FCFF
:1017D0000F23261C271C251C0B9408940A9307939F
:1017E0000594099406940020FFF770FD0722082451
:1017F0001020089B0CA913400C93069B0C9A9B008D
:1018000000940918C858524200210423FFF77CFDB8
:101810001020049B0C9A0CA99B0000940918C8582E
:10182000A21A00210423FFF76FFD07220B9B0CA9CE
:1018300013400C93099B00949B000919C85804217C
:101840000C9A0B1C5242FFF75FFD211C039B0CAA54
:1018500012199B00D35804390D930C9B0D98E21A72
:1018600000940B1CFFF750FDFFF746FD0120FEF72B
:10187000A7FC002D06D1FEF763FC002803D05148D9
:10188000FFF7AEFA0125059B002B30D1079B0137EE
:101890009F422CD1089B013308935B0717D14A481C
:1018A000FFF79EFAFFF76CFB062100F02FFC059B6B
:1018B000032900D80B1C002D0CD07A000792642A53
:1018C0000EDC049A00270692049301250FE0079787
:1018D000059F0CE0049A0797069204932F1C06E0DC
:1018E0000027049A049301233D1C069205930A9B4A
:1018F000741C9C4205D0099A261C039B0A9C0392E7
:1019000008E00B9B01330B935B0708D00026099A74
:10191000039B0392039A0A940992039363E7059B3E
:10192000012B02D12848FFF75BFAFFF729FB0323BD
:10193000059A1840434243410026012AEAD1B542A4
:1019400001D12E1CE6E76400642C01DC059DE1E773
:10195000069B039A1D481343B34204D0039B1C48C3
:10196000012B00D01B48FFF73BFAFEF7E9FB0824E8
:1019700007220899069B0A409B00009410A958581A
:10198000524200210423FFF7BFFC04210D980022DE
:101990000B1C0094FFF7B8FCFFF7AEFC0A20FEF723
:1019A0000FFCFEF7CDFB0028E1D0B3E618270000BE
:1019B0002227000010270000002700005A270000FF
:1019C0003327000044270000D929000047270000E2
:1019D0004F2700005627000038B5041C251C094B72
:1019E0000822196800F088FA074B0835E41800212E
:1019F000281C298108220A3500F0BCFAA542F6D13C
:101A000038BDC046B4010010FA03000000238B4229
:101A100006DAE022D2019A181278C2540133F6E7AE
:101A20007047802138B5051CC900FFF7EFFF074B51
:101A3000281C1968FFF7F2F9041E03D1281CFFF7D0
:101A4000CBFF00E00124201C38BDC046B4010010CB
:101A5000064B10B519680822041C00F04DFA8021CD
:101A6000201CC900FFF74BF810BDC046B4010010A0
:101A7000002330B589B06D46CC5C9A0001335451D7
:101A8000082BF8D10C30FFF702FA051C0948FEF7C5
:101A900077FE0024AC4207DA6A46A3000648D15814
:101AA000FEF76EFE0134F5E70448FEF769FE09B063
:101AB00030BDC046B2270000572300005326000067
:101AC00037B50C300C1CFFF7B9F90F2302111A407F
:101AD000111C03403731092A01DC3032111C1A1C59
:101AE00001A801703732092B01DC30331A1C0023A6
:101AF0002578211C42708370FFF7C9F9291C024820
:101B0000FEF73EFE37BDC046BF270000F8B50B30DC
:101B10000F1C151C041CFFF791F9061E652E1FD81B
:101B2000201C2021FFF797F9002819DB0A235E43C8
:101B300001302418AD19291C201CFFF7A8F9391C05
:101B4000201CFFF7A4F9201C2021FFF784F964234F
:101B5000002804DB01302018FFF770F9031C2B81EB
:101B6000F8BD0022F0B5A7B0002306AC1355013232
:101B7000802AF9D1002504AA9D540133082BF9D1FC
:101B80002F1C0120FFF7A2FB00950195FEF75CFBDF
:101B9000FEF74AFC002800D193E0FEF74BFC0A2830
:101BA00000D085E00026201C6849E655FFF736F98D
:101BB000071C201CB74203D004A9FFF759FF52E0CD
:101BC0006349FFF72BF9061C201C002E05D004A941
:101BD000FFF776FF3D1C2F1CDAE75E49FFF71EF981
:101BE000071C201C002F05D05B4A04A90832FFF710
:101BF0008DFF38E05949FFF711F9061E04D0564809
:101C0000FFF7EAFE564811E0201C5649FFF706F997
:101C1000071E04D05448FFF72CF9012546E0201C8C
:101C20005249FFF7FBF8002803D05148FFF721F98C
:101C3000D0E7201C4F49FFF7F1F8002805D04648AF
:101C4000FFF706FF011C4C480BE0201C4B49FFF737
:101C5000E5F8002809D04048FFF7E3FE0123191AF0
:101C60004748FEF78DFD0025B5E7201C4549FFF7E5
:101C7000D5F8071E04D04448FFF7FBF827B0F0BDA5
:101C8000201C4249FFF7CAF8061E0CD0162004ABF0
:101C9000C018FFF7D3F83E4B18800F2004ABC018D4
:101CA000FFF7E7F874E7201CFFF7E3F8371C6FE74E
:101CB0000D2800D16CE77E2F00DD69E7E055013784
:101CC00066E7002D03D104A8FFF7D2FA5EE7012DE5
:101CD00000D05BE70A23009A1F4E5A430836B61815
:101CE000301C0292FFF7C4FA281CFEF769FA019B28
:101CF000013301930822B35E174A0392019A9A4274
:101D000000DA43E71148FEF73BFD331C083301932B
:101D100031782048FEF734FD019B01369E42F7D111
:101D20001D48FEF72DFD009B01330093652B03D169
:101D300000230093019329E7029A039B944663448E
:101D40001A229B5E002BF4D00023F3E7B227000099
:101D5000CF270000DC270000E6020010E827000083
:101D6000EF270000F5270000FC27000000280000F6
:101D7000072800000C280000182800002128000077
:101D80002D280000362800003D28000043280000D0
:101D9000E40200105723000053260000F0B5D7B02E
:101DA00002A94A48FFF773F804A94948FFF76FF8FA
:101DB000A0224849520006A800F09EF802A8FFF7AA
:101DC00057FA4548FFF70CF84448FFF78DFAFFF73C
:101DD00093FAFEF7B5F90028F6D00020FEF776F961
:101DE0000A20FEF7EDF9FEF7A3F9041E05D0FEF771
:101DF00067F93B4B9842F3DD66E0251C271C394E02
:101E0000301CFEF7EDFF201CFEF760F906A8FFF777
:101E10002FFA009401960A266E430120FEF7D0F9AE
:101E200006AB9E190822B35E01349C4226DB2E4885
:101E3000FEF7D6FF2D48FEF7A3FC0024315D2C48A9
:101E40000134FEF79DFC082CF8D12A480135FEF735
:101E500097FC202D0AD00A236B4306AAD318082228
:101E60009B5E5A1E93415B421D4000E000250A2004
:101E7000684306AB1818FFF7FBF90024FEF758F982
:101E8000002812D0009B012B1ED0FEF719F9381A3A
:101E9000434243410093002F07D10198FEF7A0FF72
:101EA000FEF70EF9071CFEF7CFF9FEF741F9431EC6
:101EB000984140420740FEF703F9094B9842AADDDA
:101EC0000020FEF703F9A6E757B0F0BD9C290000FB
:101ED000AD2900005C280000BE290000C7290000D1
:101EE00010270000D9290000D8290000B2270000DF
:101EF000572300005326000070B50F2A32D9041C66
:101F00000C430B1CA40731D1151C041C103D2D09DA
:101F100001352D0149191E6826605E6866609E685D
:101F2000A660DE681033E66010349942F3D10F23C7
:101F300045191340032B1BD91C1F0023A40801348F
:101F4000A400CE58EE500433A342FAD1ED18C918BC
:101F500003231A4005D00023CC5CEC540133934298
:101F6000FAD170BD051C002AF5D1FAE7051CF2E78D
:101F70001A1CF8E770B583073FD0541E002A3BD0E7
:101F8000CEB2031C032503E0621E002C34D0141CC7
:101F900001335A1E16702B42F6D1032C24D9FF258B
:101FA0000D402A0215432A0415430F2C11D9261C73
:101FB000103E3609013636011A1C9B191560556012
:101FC0009560D56010329342F8D10F221440032C53
:101FD0000AD9261FB6080136B6001A1C9B1920C262
:101FE0009342FCD103221440002C05D0C9B21C1925
:101FF00019700133A342FBD170BD141C031CCCE744
:10200000002243088B4274D303098B425FD3030A37
:102010008B4244D3030B8B4228D3030C8B420DD34A
:10202000FF22090212BA030C8B4202D312120902D8
:1020300065D0030B8B4219D300E0090AC30B8B4216
:1020400001D3CB03C01A5241830B8B4201D38B03C4
:10205000C01A5241430B8B4201D34B03C01A524169
:10206000030B8B4201D30B03C01A5241C30A8B42AC
:1020700001D3CB02C01A5241830A8B4201D38B0297
:10208000C01A5241430A8B4201D34B02C01A52413B
:10209000030A8B4201D30B02C01A5241CDD2C309AD
:1020A0008B4201D3CB01C01A524183098B4201D329
:1020B0008B01C01A524143098B4201D34B01C01A14
:1020C000524103098B4201D30B01C01A5241C3088C
:1020D0008B4201D3CB00C01A524183088B4201D3FB
:1020E0008B00C01A524143088B4201D34B00C01AE7
:1020F0005241411A00D20146524110467047FFE753
:1021000001B5002000F0FCF802BDC0460029F7D060
:1021100003B5FFF775FF0EBC4243891A1847C04646
:1021200003460B437FD4002243088B4274D3030938
:102130008B425FD3030A8B4244D3030B8B4228D3D9
:10214000030C8B420DD3FF22090212BA030C8B42FF
:1021500002D31212090265D0030B8B4219D300E09F
:10216000090AC30B8B4201D3CB03C01A5241830B24
:102170008B4201D38B03C01A5241430B8B4201D3D4
:102180004B03C01A5241030B8B4201D30B03C01AFD
:102190005241C30A8B4201D3CB02C01A5241830A77
:1021A0008B4201D38B02C01A5241430A8B4201D3A6
:1021B0004B02C01A5241030A8B4201D30B02C01AD0
:1021C0005241CDD2C3098B4201D3CB01C01A524137
:1021D00083098B4201D38B01C01A524143098B42C0
:1021E00001D34B01C01A524103098B4201D30B01A9
:1021F000C01A5241C3088B4201D3CB00C01A5241CE
:1022000083088B4201D38B00C01A524143088B4292
:1022100001D34B00C01A5241411A00D2014652412B
:10222000104670475DE0CA0F00D04942031000D34A
:102230004042534000229C4603098B422DD3030A9F
:102240008B4212D3FC22890112BA030A8B420CD3AF
:10225000890192118B4208D3890192118B4204D3D8
:1022600089013AD0921100E08909C3098B4201D358
:10227000CB01C01A524183098B4201D38B01C01A92
:10228000524143098B4201D34B01C01A5241030909
:102290008B4201D30B01C01A5241C3088B4201D3B8
:1022A000CB00C01A524183088B4201D38B00C01A65
:1022B0005241D9D243088B4201D34B00C01A52413C
:1022C000411A00D20146634652415B10104601D3C9
:1022D0004042002B00D54942704763465B1000D353
:1022E000404201B5002000F00BF802BD0029F8D0F3
:1022F00003B5FFF715FF0EBC4243891A1847C046C5
:102300007047C04600000000000000BE80B8A8A8CA
:1023100080BE88B880BA00B8A8F800B8A8B880BE57
:10232000A29C80B8A8B880849EA480A4AA92000031
:1023300000000000000049636869676F446F7453D0
:10234000205665722E25730A00302E382E35002552
:1023500030386C5820002025303258002025303489
:102360005800202530384C580004026D03646C0579
:10237000670608096607650B0A373038383938614F
:1023800038633838383730303000323036306130EA
:102390003230323032306638303000373038383012
:1023A00038303833306330663830300037303838C2
:1023B000303833303038383837303030003330351B
:1023C00030393039303930663831303030006638A5
:1023D00038306630303830383838373030300037C1
:1023E00030383066303838383838383730303000A8
:1023F0006638383830383130313032303230303081
:1024000000373038383838373038383838373030A7
:102410003000373038383838383837383038373097
:10242000303000373038383838383866383838384F
:102430003830300066303438343837303438343857
:10244000663030300037303838383038303830384F
:102450003837303030006630343834383438343837
:1024600034386630303000663838303830663838C6
:1024700030383066383030006638383038306638BA
:10248000383038303830303000373038383830383D
:10249000303938383837383030003838383838380C
:1024A00066383838383838383030003730323032E3
:1024B0003032303230323037303030003338313033
:1024C0003130313031303930363030300038383911
:1024D0003061306330613039303838303000383076
:1024E00038303830383038303830663830300038AE
:1024F00038643864386138613861383838303000D1
:1025000038386338633861383938393838383030DA
:10251000003730383838383838383838383730308D
:10252000300066303838383838386630383038302F
:10253000303000373038383838383861383930364C
:10254000383030006630383838383838663039300E
:102550003838303000373038383830373030383865
:102560003837303030006638323032303230323046
:10257000323032303030003838383838383838383F
:102580003838383730303000383838383530353032
:1025900035303230323030300038383838613861D8
:1025A00038613835303530303000383838383530EB
:1025B00032303530383838383030003838383835FF
:1025C00030323032303230323030300066383038ED
:1025D00031303230343038306638303000373034D3
:1025E00030343034303430343037303030003838F4
:1025F000353066383230663832303230303000377D
:1026000030313031303130313031303730303000EE
:1026100032303530383830303030303030303030A3
:10262000003030303030303030303030306638309C
:1026300030003430323031303030303030303030C3
:102640003030004D41544C45442053484F572025CD
:102650003032580A004C38454747003861613263D0
:102660006330303635393566303130004300303034
:102670003338303430343338303430343338003059
:102680003033383034303430383130323033630026
:1026900030303138323830383038303830383363D1
:1026A00000303037333935383538356235393537DC
:1026B0003600413136004C384345470030306339ED
:1026C000616161636163616161613639004C384504
:1026D0005238454731364531360061666561616182
:1026E00030303637323532353737003034334532D3
:1026F00046353636414436414337380041340000D0
:10270000332700007F27000090270000A12700004A
:102710005D2700006E2700004338473843383E47A6
:1027200034006331353266346432303134613435EB
:102730003330003030343934626566346461396175
:102740006630300041380047313652384732004356
:102750003243384338004338453847380030303644
:1027600030663036306630393066303030003030E8
:1027700039306230663064303930663030300030A5
:1027800030343965626566656434393466303000EA
:102790003030343634663436656635393466303038
:1027A00000303065363466653634666539646630C7
:1027B00030004D41544C45442053484F5720004D64
:1027C00041544C454420505553482025640A004D3F
:1027D00041544C4544205055534820004D41544CE1
:1027E00045442053455420004D41544C454420431A
:1027F0004C454152004D41544C45442052554E00E9
:102800004D41544C45442053544F50004D41544C7D
:102810004544205341564500534156452025640AFE
:10282000004D41544C4544204C4F4144004C4F41D5
:10283000442025640A004D41544C454420425245F1
:10284000414B004D41544C454420524F5441544556
:1028500020004D41544C4544303100000884E41EB2
:102860001EE4840890010098E41F1FE498005802B9
:102870000884E41E1EE4840858020098E41F1FE444
:10288000980058020084E4141EEE8408900100426F
:1028900072141EFE8418C800060404091EEC8E364D
:1028A000C8000664243D0D7E0C0CC8006624241864
:1028B000997E180090016624245A5A3C1818580230
:1028C00066242418997E180058026624245A5A3C1B
:1028D0001818580266242418B07E30009001602633
:1028E00024BCB0783600C8006020A09078F7D108EA
:1028F000C80000222E28F8FF2118C80010212778D0
:10290000782721109001001927F8F827190058029C
:1029100010212778782721105802001927F8F82766
:1029200019005802102177782827210090011821DA
:102930007F78284E4200C8006C7137789020206064
:10294000C80030307EB0BC242660C80000187E99D4
:1029500018242466900118183C5A5A2424665802F8
:1029600000187E9918242466580218183C5A5A24D4
:1029700024665802000C7E0D182424669001006C19
:102980001E0D3D246406C800108BEF1E09050406C9
:10299000C8001884FF1F14744400C8003030393850
:1029A0006534316631666534393830300030383856
:1029B0003465343365336565343834303800434426
:1029C0004532434445320031413141334335383596
:0D29D00038334332343234003C433136009A
:1029E0000300000004000000C1110000C21000003C
:1029F000D10F0000EE0E0000170E00004D0D00007C
:102A00008E0C0000D90B00002F0B00008E0A000076
:102A1000F709000067090000E008000061080000F5
:102A2000E8070000770700000B070000A60600007B
:102A300047060000EC050000970500004705000070
:102A4000FB040000B3040000700400003004000028
:102A5000F4030000BB0300008503000053030000E3
:102A600023030000F6020000CB020000A3020000D6
:102A70007D02000059020000380200001802000028
:102A8000FA010000DD010000C2010000A901000000
:102A9000910100007B010000650100005101000070
:102AA0003E0100002C0100001C0100000C01000090
:102AB000FD000000EE000000E1000000D400000076
:102AC000C8000000BD000000B2000000A800000027
:102AD0009F00000096000000E803000015CD5B0792
:102AE000E5559A15B53B121F3313490579230000AC
:102AF0008A2300009B230000AC230000BD230000BC
:102B0000CE230000DF230000F0230000012400009A
:102B10001224000023240000342400004524000077
:102B20005624000067240000782400008924000057
:102B30009A240000AB240000BC240000CD24000037
:102B4000DE240000EF240000002500001125000015
:102B500022250000332500004425000055250000F3
:102B600066250000772500008825000099250000D3
:102B7000AA250000BB250000CC250000DD250000B3
:102B8000EE250000FF250000102600002126000091
:082B900032260000522800006B
:00000001FF
