:10000000900B0010B9020000B5020000B50200001C
:1000100000000000000000000000000000000000E0
:10002000000000000000000000000000B502000019
:100030000000000000000000B502000029020000DE
:10004000B7020000B7020000B7020000B7020000CC
:10005000B7020000B7020000B7020000B7020000BC
:10006000B7020000B7020000B7020000B7020000AC
:10007000B7020000B7020000B7020000B70200009C
:10008000290B0000B7020000B7020000B702000011
:10009000B70200007D030000000000000000000027
:1000A000B7020000B7020000B70200000000000025
:1000B000B7020000B7020000B7020000B70200005C
:1000C000014B18687047C046E0060010014B1860ED
:1000D0007047C046E0060010D021102008B5074B3D
:1000E0001960074B1A6882431A60064A11601A6841
:1000F000B0390A431A6000F03FFD08BD9440044047
:1001000000800150A0400440074B1A6853425341FD
:10011000DBB2064A002B04D01168002901D101315D
:10012000516013607047C04640000150B801001094
:10013000024B186843425841C0B27047400001501A
:100140000020034B5A68824201D05860013070474A
:10015000B801001008B500F0A3F9054A054B0648A0
:100160001A60064A064B07491A6000F009FB08BDF1
:1001700061040000E8060010D221000035040000F0
:10018000E4060010E721000008B5011C044801F056
:1001900015FF0722034B01381860034B1A6008BD96
:1001A00000366E0114E000E010E000E0034B1A6836
:1001B00010181A688242FCDD7047C046E006001045
:1001C00008B50A235843FFF7F1FF08BD0221084A8A
:1001D00013680B431360074A491813680B431360F5
:1001E000054A013913680B43136030BF7047C0469E
:1001F0000080034010ED00E03882044008B5074B52
:10020000074A1B68002B00D1936093680133936009
:10021000044A934201DDFFF7D9FF08BD40000150B9
:10022000B8010010400D030008B5064A13680133F9
:10023000136000F0C3FFFFF767FF00F0D3FCFFF788
:10024000DDFF08BDE00600100022014B9A607047F8
:10025000B801001008B500F081FEFFF73DFF104A1D
:10026000104B1A600722104B1A60FFF773FF0F4BF9
:100270001B68002B0BD16420FFF798FFF7E701F014
:1002800009FA01F067F801F035F901F033FD08488B
:10029000322101F027F80028F1D101F024FCF6E723
:1002A000CF07000014E000E010E000E04000015043
:1002B000A0210000FEE7FEE70022012403261E4BDA
:1002C0001E481A601E4B1F4D02601A601C60296890
:1002D000B143214329601C490A601C490A600C6033
:1002E00081211B4A7F3411601A490A68A2430A60BF
:1002F0001A1C0121184B1B680B42FAD0174B1960CE
:10030000032303600023136011601549154A11602F
:10031000154A16499A188A4204D21549C958043315
:100320001160F5E7134B144A934202D2002204C332
:10033000F9E7FFF78FFFFEE750810440708004402B
:100340007480044010C00340408004404480044056
:1003500008800440388204400C80044078800440C7
:100360005F0001008080044000000010B801001010
:100370001C270000B80100108C07001070B5254B39
:100380001B68DBB2DA0743D407221340022B1CD0D0
:10039000214C042B38D12148051C438881889BB20D
:1003A00089B22268D2070BD51D4A12687F29F8DC72
:1003B0005E1CD2B2EB181A727F2301313340F0E792
:1003C0009AB28BB242808380D9E716498A890C1C85
:1003D00092B2002A16D0101C0B8910389BB25D1CFB
:1003E000E3181B7C0E4EDBB233607F23013A2B40B7
:1003F000824202D0002AF2D1101C9BB280B20B8143
:100400008881BCE7CA81BAE72368054B1B68B6E759
:1004100070BDC0460880004014800040C401001038
:100420000080004044020010014B988880B2704761
:10043000C4010010094B9A88002AFBD01A8892B296
:100440009918087A7F2101320A40C0B21A8072B628
:100450009A88013A92B29A8062B67047C40100103D
:100460000D4B9A897F2AFBD872B6DA89002A0CD004
:100470005A8992B2991808747F2101320A405A8130
:100480009A89013292B29A8103E00122DA81034B08
:10049000186062B67047C0464402001000800040F9
:1004A00010B572B6D1238021194A49011360194A47
:1004B00004241360184A194813680B43136002227E
:1004C000174B18491A608323174A136000230B60E7
:1004D000046016488134046003201060144A84309C
:1004E0001060144A07381060134A138153819381B6
:1004F000D381124A138053809380C02207330B604C
:100500000F4B1A7080220F4B92031A6062B610BD17
:10051000A8400440A4400440808004400080004083
:1005200098800440048000400C80004028800040F7
:10053000088000403080004044020010C4010010D8
:1005400015E400E000E100E010B5041E0A2C02D121
:100550000D20FFF7F9FF074A1368002B03D0591C41
:1005600011601C7005E0044B1B68002B01D0201C9F
:10057000984710BDD4020010E806001010B5041C06
:100580002078002803D00134FFF7DEFFF8E710BD24
:10059000F0B5071C0C1C8BB03878002800D1DCE0CB
:1005A000252801D0013776E07E78302E03D1FB1C60
:1005B000BE78012207E02D2E02D0BB1C002202E0F3
:1005C0000222BE78FB1C009200220292321C303ABA
:1005D0001F1C092A08D80A2202994A439619303E5C
:1005E00002961E780133F1E72022311C91430A1E46
:1005F0004C2A05D10099483A11431E7800910137E1
:10060000002E00D1A9E0331E602B01D9203BDBB2C4
:100610004F2B14D008D8432B33D0442B3FD0022289
:100620000392422B3DD035E0552B38D0582B2FD09C
:10063000532B2FD12568231D01932B1C01E0082289
:100640002EE05C1B01335A1E1278002AF9D1009B60
:100650009B0709D4029B661C9C4204D22020FFF712
:1006600073FF341CF3E7341C281CFFF787FF029B41
:100670009C4201D3019C8FE72020FFF765FF0134E6
:10068000F5E72068231DC0B20193FFF75DFFF1E796
:10069000102205E0301CFFF757FF0194EAE70A2219
:1006A0000392221D01922568442B06D1002D04DA05
:1006B0000823009A6D421A43009200230493281CD9
:1006C000039901F071FC281CCBB20C1C0399059313
:1006D00001F0E4FB051C092C07D92723782E00D054
:1006E000203B059A9B18DBB20593049B04995C1C84
:1006F000059B06AA30335354002D03D0102C01D093
:100700000494DCE7009B1B0703D52D2306AA135591
:10071000013430230393009BDB0701D42023039390
:10072000251C009B9B0709D4029B6E1C9D4204D292
:100730000398FFF709FF351CF3E7351C013C06ABB6
:10074000185DFFF701FF002CF8D1029B9D4291D26A
:100750002020FFF7F9FE0135F7E70BB0F0BD074B9E
:1007600070B50D1C1C1C1E6818602878002803D06A
:100770000135FFF7E9FEF8E7266070BDE8060010D6
:100780000FB407B504A901C90191FFF701FF03B038
:1007900008BC04B018470EB417B505A908C9074C22
:1007A00001912060181CFFF7F3FE002322681370EC
:1007B000236017BC08BC03B01847C046D402001021
:1007C0000EB433B5064C05A908C925682060181C6D
:1007D0000191FFF7DDFE256033BC08BC03B018476C
:1007E000E806001070B5041C1D481E1C151CFFF700
:1007F000C7FF022E1FD0042E26D0012E2BD1261C7F
:10080000331BAB4205DA31781648FFF7B9FF0136E2
:10081000F6E72020FFF798FE261C331BAB421ADABE
:1008200033782E201A1C203A5E2A00D8181CFFF7B5
:100830008BFE0136F1E721880B48013DFFF7A0FF51
:100840000234002DF7D106E0084802CC013DFFF745
:1008500097FF002DF8D10A20FFF776FE70BDC04645
:10086000ED210000F4210000FA2100000022000028
:10087000F7B50024144D061C2B680191A3420AD140
:1008800000201FE00D2817D0082809D1002C02D025
:10089000013CFFF759FE2B6898470028F2D1EFE79B
:1008A0001F28F8DD019B013B9C42F4DA3055671CA0
:1008B000FFF74AFE3C1CEEE700230A203355FFF702
:1008C00043FE0120FEBDC046E406001038B5044CCE
:1008D00025682060081C111CFFF7CAFF256038BD81
:1008E000E40600100023021C70B50B60106803784A
:1008F000202B02D101301060F8E700252D2B03D109
:10090000431C136043780135302B1BD11068431C06
:1009100013604378622B06D0782B09D1831C1360B7
:100920008378102613E0831C1360837802260EE080
:100930000120202B29D9181C30380826092806D96F
:10094000002022E0181C30380928F9D80A26002493
:10095000202B15D9602B01D9203BDBB2181C303875
:10096000C0B2102803D9373BD8B20928E8D9B04221
:10097000E6D2744313680419581C10605B78E7E7EB
:10098000002D00D0644201200C6070BD372300B5FB
:100990008BB00093684605A9024B984706980BB0A8
:1009A00000BDC046F11FFF1F362300B58BB000937A
:1009B000684605A9024B984706980BB000BDC04693
:1009C000F11FFF1F3A2300B58BB00093684605A9BD
:1009D000024B984706980BB000BDC046F11FFF1FA1
:1009E000352300B58BB0009301900291684605A9AC
:1009F000024B984705980BB000BDC046F11FFF1F82
:100A0000342300B58BB00093054B01900291039302
:100A1000684605A9034B984705980BB000BDC04632
:100A2000C05D0000F11FFF1F322300B58BB00093A3
:100A300001900291684605A9024B984705980BB0B2
:100A400000BDC046F11FFF1F332300B58BB00093DC
:100A5000054B0191029004936846039205A9034B4C
:100A6000984705980BB000BDC05D0000F11FFF1F47
:100A7000382300B58BB00093019102900392684631
:100A800005A9024B984705980BB000BDF11FFF1F49
:100A900038B5051C07200C1C011CFFF7A1FF00281E
:100AA00006D10720011CFFF7BFFF00280ED01FE072
:100AB0000720011CFFF7B8FF00281BD10730011CDD
:100AC000FFF79EFF0028ECD0022016E0E021281C52
:100AD000C901221CFFF7B8FF00280DD1E021281C16
:100AE000C901221CFFF7C4FF002807D0052004E03D
:100AF000032002E0012000E00420404238BD08B598
:100B000072B6FFF7C5FF62B608BDE020C0017047AE
:100B1000802040017047C046024A1368DB431360DF
:100B20007047C04680000150074B10B51A681C1C66
:100B3000D30707D5054B1B68002B01D0FFF7ECFF4F
:100B40000123236010BDC04600C00040D802001041
:100B5000034B1A68002A01D101321A607047C0465F
:100B600004C00040034B1A68002A01D000221A601A
:100B70007047C04604C0004008B500230F4A104922
:100B800013700A6080210F4A13600F4A13600F4AE6
:100B900013680B43136017220D4B1A600D4B1B3269
:100BA0001A600D4B2F3A1A6080220C4B52021A60C9
:100BB00001220B4B1A70FFF7CBFF08BDF80600109F
:100BC000EC060010F4060010F006001080800440CF
:100BD0000CC0004018C0004014C0004000E100E01C
:100BE00010E400E0F7B5654A1368002B05DD013B12
:100BF0001360634A002B05D0BEE0624A1368002BE5
:100C000008DD013B1360B7E03E2A0ED15E4A13684F
:100C1000013313605D4D2C68291C601C286022780C
:100C2000002AF1D12C60564BA5E03C2A03D1564A4C
:100C30001368013BEDE72023161C9E43331E4F2B08
:100C400005D1A31C2B6063784F4A303BE1E7202A93
:100C5000E0D04C2E17D1A31C2B6067781020391CD4
:100C60003039019301F0AAF9474E7060312FD1D18C
:100C7000E31C2B60A378362B02D1353B7360C9E7A8
:100C8000019B2B60C6E7432E0FD0442E0FD0452E7C
:100C90000FD0462E0FD0472E0FD0412E0FD0422E10
:100CA0000FD0522EB6D1533B0CE000230AE00223B2
:100CB00008E0042306E0052304E0072302E00923FB
:100CC00000E00B23A21C0A6062782B2A01D10133B9
:100CD00004E02D2A01D1013B00E008600D682A489C
:100CE0006C1C0C602C784268322C0ED0342C0ED048
:100CF000382C0ED0312C0ED02E2C04D1D40FA418A9
:100D00006410121908E00D6006E0082204E00422D5
:100D100002E0022200E010220C68651C0D602578BC
:100D20002E2D04D1D10F89184910521806E0362D06
:100D300001D1102A01D00C6000E00122104C002BE0
:100D400009DB0C21056869435B18591C01D03B2B5A
:100D500003DD002307E0591CFBD09B00C01881680D
:100D60000B4B196001232360C8239B005A43034B9C
:100D70001A60044BD2101A60F7BDC046F00600108E
:100D8000D8020010F406001000000010EC0600105D
:100D900018C000400023C15C094AD154C15C00293D
:100DA00002D00133802BF6D1064B1A600322064B8A
:100DB0001A6001325A600022044B1A607047C04624
:100DC000F8060010EC06001000000010F0060010FD
:100DD000002210B58C5C835C002C05D0002B05D064
:100DE000A34203D10132F5E7012000E0002010BD4D
:100DF00000230278303AD1B2092904D80A214B43A2
:100E000001309B18F5E7181C7047031C10B51C78BF
:100E10001A1A002C03D08C4203D00133F7E70122C9
:100E20005242101C10BD10B5041C0134631E18780A
:100E3000002802D0FFF714FBF7E70A20FFF710FBAA
:100E400010BDF0B50023051CEA5C101C30380928E1
:100E500004D920208243413A052A02D80133102BBD
:100E6000F2D101221A409B1858100B1C08225C1A60
:100E7000121A944203DA1A5C1A700133F6E700245E
:100E800089182A5D131C303B092B07D9313B052BF0
:100E900003D9131C413B052B11D80A3362108A1861
:100EA000E60703D50F271678BE4303E00F26177811
:100EB0001B013E40334301341370102CE1D1F0BDCF
:100EC000F7B50C1C0A1C0190083400231370013282
:100ED000A242FAD1019AD25C141C303C092C0AD9E6
:100EE000313C052C01D8573A04E0141C413C052C38
:100EF0001FD8373A141C01229446171CDD105E10CF
:100F000002321640AD00AD196646AE401F40BF002C
:100F1000F5B20326201CB61A3041061CF00703D593
:100F2000C819865C2E438654013AF2D20133102B45
:100F3000D0D1F7BD084A5168136811609168D80292
:100F40005160D1684340C80C484058401B0A584083
:100F50009160D0607047C046FC000010F7B50020DB
:100F6000554B18700026554BC31801301E700828C9
:100F7000F8D1D02180248027514BBF001960514BFC
:100F8000BC461A68802522431A604F4A703C1160A3
:100F90001A68ED0022431A604C4A0C3C11601A6832
:100FA00002431A604A4A11601A6822431A60494A89
:100FB0001160494A14683C431460484C013F216069
:100FC0001468FF3F3C431460454C21601C68274374
:100FD0001F606746434C21601C683C431C60D12461
:100FE000414F3C601F682F4380251F603F4F2D01FC
:100FF0003C601F682F4320251F603D4F39601F68EC
:101000002F431F603B4F39604027196839431960EF
:101010000121394B1C6013680B431360374B49188F
:101020001C601368194311600421354B1C60136860
:101030000B431360334B1C60136818431060324835
:10104000058842888188C3880127304CBC46345DBE
:101050002E4F0197632C05DC6746A740BCB22543A1
:10106000224305E06746643CA740BCB221432343CA
:10107000019F01240837BF5D632F03DCBC4022437E
:1010800092B203E0643FBC4023439BB20136082E7A
:10109000DAD1C380058042808180A02012B2C005D1
:1010A000920012182DB215601BB2194A9B009B18B2
:1010B00009B21960F7BDC046780700107907001023
:1010C0005040044000800050304004402C40044018
:1010D0001C4004403840044000800150144004404B
:1010E0006040044064400440684004407440044050
:1010F000344004404C400440784004407C4004406C
:101100008040044090400440DC02001007220000B0
:1011100000000150C243CB43D217DB1770B5194012
:101120001040072800DD0720072900DD0721144EA5
:10113000144B711AC97B00229D5E04229C5E012221
:10114000632902DC8A40154302E064398A40144373
:10115000315C0122632902DC8A40954302E0643954
:101160008A40944302215A5EA0219200C905521878
:10117000156006229B5E044A9B009B181C6070BD94
:1011800007220000DC02001000000150094A022181
:10119000535EA0219B00C9055B180020115E1960F9
:1011A0000621535E04499B005B180421525E1A60BD
:1011B0007047C046DC02001000000150072310B544
:1011C0000A4C2078C1081840094B5B5C0341DB07DF
:1011D00002D5FFF79FFF01E0FFF7D8FF2378013327
:1011E000DBB2402B00D10023237010BD7807001024
:1011F000790700100023C15C024AD1540133082B47
:10120000F9D17047790700100023034AD25CC25419
:101210000133082BF9D170477907001007231840D4
:101220001940063B8B40191C024A135C19431154A8
:101230007047C04681070010072318400B4001216A
:101240009940024A135C8B43135470478107001086
:101250000023021C511E8A4103495242CA540133E1
:10126000082BF6D17047C0468107001008B5024927
:10127000FFF726FE08BDC0468107001008B50248EA
:10128000FFF7B8FF08BDC04681070010F0B587B072
:10129000029104A9019203930025FFF711FE039B1D
:1012A0009D421DDA019C019BE71A0C9B9F4215DAB7
:1012B000029BEE18072E0FD8072C0DD8301C211CCE
:1012C000FFF7BAFF04ABEB5C3B411F1CFB0703D5E8
:1012D000301C211CFFF7A2FF0134E4E70135DEE7F3
:1012E00007B0F0BDF0B50A2685B000900191009DD1
:1012F000019A009B083AEB1A934220DAFEF7A4FF0A
:1013000002A8FFF781FF0120FFF7A2FF281CFFF7CB
:1013100071FF02AB19780E48FFF732FA5A27012005
:10132000FEF74EFFFEF70CFF041E0DD1FFF77CF811
:1013300000280AD1013F002FF1D10135D8E7013E45
:10134000002ED4D1FEF742FF0124201C05B0F0BDD1
:10135000E124000038B55848FFF71CFDFEF7F0FE09
:101360005648FFF783FFFFF789FFFEF7E9FE0028E5
:10137000F6D00020FEF7AAFE0A20FEF721FFFEF7B6
:10138000D7FE041E05D0FEF79BFE4D4B9842F3DDC1
:1013900038BD4C4D281CFFF7FDFC4B48FFF766FF9E
:1013A000FFF76CFFFA208000FEF70AFF281CFFF70A
:1013B000F1FC4648FFF75AFFFFF760FFFA20800074
:1013C000FEF7FEFE281CFFF7E5FC4148FFF74EFF45
:1013D000FFF754FFFA208000FEF7F2FE3D48FFF7CA
:1013E000D9FC3D48FFF742FFFFF748FFFA20800095
:1013F000FEF7E6FE0120FFF72BFFFFF73FFF201C63
:10140000FEF764FEFEF79CFEFEF79AFE0028FBD076
:101410003248FFF7BFFC0720E11020400134FFF7FE
:101420000BFFFFF72BFF402CEED12D48FFF7B2FC4E
:101430002C48FFF71BFFFEF743FE2B4D011C281C19
:10144000FFF79EF9FEF73CFEC117890E09188911B6
:10145000264800F0B3FD041C281C211CFFF790F95E
:10146000FA2C00D9FA240A21201C00F017FD204D87
:1014700080004059FFF7FAFE0620011CFFF7CEFE60
:10148000FFF7FCFEFA208000FEF79AFE201C0A21DE
:1014900000F08AFD89004859FFF7E8FEFFF7EEFEED
:1014A000FA208000FEF78CFEFFF7E8FEFA208000AD
:1014B000FEF786FE4FE7C046F3240000F924000043
:1014C000102700000A2500000C2500001D25000043
:1014D0002E250000F02500003F25000050250000CB
:1014E000542500005A250000D6260000A0860100E1
:1014F0000C01001038B55748FFF74CFCFEF720FEF2
:101500005548FFF7B3FEFFF7B9FEFEF719FE0028B6
:10151000F6D00020FEF7DAFD0A20FEF751FEFEF7B6
:1015200007FE041E05D0FEF7CBFD4C4B9842F3DDC1
:1015300038BD4B4D281CFFF72DFC4A48FFF796FE9F
:10154000FFF79CFEFA208000FEF73AFE281CFFF70A
:1015500021FC4548FFF78AFEFFF790FEFA20800045
:10156000FEF72EFE281CFFF715FC4048FFF77EFE15
:10157000FFF784FEFA208000FEF722FE3C48FFF7CA
:1015800009FC3C48FFF772FEFFF778FEFA20800066
:10159000FEF716FE0120FFF75BFE3748FFF766FEF9
:1015A000FFF76CFE201CFEF791FDFEF7C9FD051E3E
:1015B00049D0002C47D13148FFF7ECFB201CFFF746
:1015C00047FEFEF77DFD2E4900F0F8FC6430C3179E
:1015D000C4182C485C40FFF7DDFB2B48FFF746FEA4
:1015E000FEF76EFD294D011C281CFFF7C9F8281CC9
:1015F000211CFFF7C5F80A21201C00F0DFFC244D58
:1016000080004059FFF732FE0620011CFFF706FE5E
:10161000FFF734FEFA208000FEF7D2FD201C0A21DD
:1016200000F0B2FD89004859FFF720FEFFF726FEC3
:10163000FA208000FEF7C4FDFFF720FEFA208000AC
:10164000FEF7BEFD57E7FFF719FE0A20FEF7AEFDD5
:101650002C1CAAE76B25000078250000102700004D
:101660000A2500000C2500001D2500002E25000085
:10167000F02500003F250000892500009A25000084
:10168000C8FBFFFF542500005A250000D6260000A5
:101690000C010010F0B595B0A548FFF77BFBFEF7F5
:1016A0004FFDA44D281CFFF7E1FDFFF7E7FDFEF716
:1016B00047FD002802D1FFF73DFCF2E70020FEF7CE
:1016C00005FD0A20FEF77CFDFEF732FD002806D05E
:1016D000FEF7F6FC984B9842F3DD15B0F0BDFEF72F
:1016E000F5FC964B10AA181C52C852C2111C026875
:1016F00010330A600EAA03CB03C29148FFF74AFBDE
:1017000008240020FFF7A4FD0826221C281C083A04
:101710000021331C0096FFF7B9FD221C89480021E7
:10172000331C0096FFF7B2FDFFF7A8FD14206043BD
:10173000013C2830FEF744FD002CE2D1FFF7FAFB14
:10174000032318400490FFF7F5FB01231840039092
:10175000FEF7F6FC0F23261C271C251C0B9408946F
:101760000A9307930594099406940020FFF770FDEF
:10177000072208241020089B0CA913400C93069BF9
:101780000C9A9B0000940918C85852420021042367
:10179000FFF77CFD1020049B0C9A0CA99B00009481
:1017A0000918C858A21A00210423FFF76FFD072269
:1017B0000B9B0CA913400C93099B00949B000919E7
:1017C000C85804210C9A0B1C5242FFF75FFD211CE4
:1017D000039B0CAA12199B00D35804390D930C9B40
:1017E0000D98E21A00940B1CFFF750FDFFF746FD21
:1017F0000120FEF7E5FC002D06D1FEF7A1FC002834
:1018000003D05148FFF7C6FA0125059B002B30D1C4
:10181000079B01379F422CD1089B013308935B073C
:1018200017D14A48FFF7B6FAFFF784FB062100F00C
:10183000BBFB059B032900D80B1C002D0CD07A00A4
:101840000792642A0EDC049A00270692049301256D
:101850000FE00797059F0CE0049A07970692049300
:101860002F1C06E00027049A049301233D1C0692D6
:1018700005930A9B741C9C4205D0099A261C039B65
:101880000A9C039208E00B9B01330B935B0708D083
:101890000026099A039B0392039A0A9409920393E0
:1018A00063E7059B012B02D12848FFF773FAFFF786
:1018B00041FB0323059A1840434243410026012A75
:1018C000EAD1B54201D12E1CE6E76400642C01DCAC
:1018D000059DE1E7069B039A1D481343B34204D0DC
:1018E000039B1C48012B00D01B48FFF753FAFEF75F
:1018F00027FC082407220899069B0A409B000094B5
:1019000010A95858524200210423FFF7BFFC0421BC
:101910000D9800220B1C0094FFF7B8FCFFF7AEFCFB
:101920000A20FEF74DFCFEF70BFC0028E1D0B3E6E1
:10193000B8250000C225000010270000A0250000E7
:10194000FE250000D3250000E4250000E725000067
:10195000EB250000F3250000FA25000038B5041C33
:10196000251C094B0822196800F014FA074B0835AA
:10197000E4180021281C298108220A3500F048FAC1
:10198000A542F6D138BDC046B4010010FA030000EC
:1019900000238B4206DAE022D2019A181278C25450
:1019A0000133F6E77047802138B5051CC900FFF701
:1019B000EFFF074B281C1968FFF70AFA041E03D132
:1019C000281CFFF7CBFF00E00124201C38BDC046D7
:1019D000B4010010064B10B519680822041C00F071
:1019E000D9F98021201CC900FFF789F810BDC04635
:1019F000B4010010002330B589B06D46CC5C9A006C
:101A000001335451082BF8D10C30FFF71AFA051C9A
:101A10000948FEF7B5FE0024AC4207DA6A46A30087
:101A20000648D158FEF7ACFE0134F5E70448FEF74E
:101A3000A7FE09B030BDC04656260000F5210000C3
:101A4000F124000037B50C300C1CFFF7D1F90F233F
:101A500002111A40111C03403731092A01DC3032CF
:101A6000111C1A1C01A801703732092B01DC30331C
:101A70001A1C00232578211C42708370FFF7E1F9BE
:101A8000291C0248FEF77CFE37BDC04663260000D5
:101A9000F8B50B300F1C151C041CFFF7A9F9061E26
:101AA000652E1FD8201C2021FFF7AFF9002819DB75
:101AB0000A235E4301302418AD19291C201CFFF7AE
:101AC000C0F9391C201CFFF7BCF9201C2021FFF7AE
:101AD0009CF96423002804DB01302018FFF788F903
:101AE000031C2B81F8BD0022F0B5A7B0002306AC83
:101AF00013550132802AF9D1002504AA9D540133DF
:101B0000082BF9D12F1C0120FFF7A2FB00950195AE
:101B1000FEF79AFBFEF788FC002800D180E0FEF774
:101B200089FC0A2800D072E00026201C5F49E65597
:101B3000FFF74EF9071C201CB74203D004A9FFF79A
:101B400059FF52E05A49FFF743F9061C201C002EAA
:101B500005D004A9FFF776FF3D1C2F1CDAE7554995
:101B6000FFF736F9071C201C002F05D0524A04A9A4
:101B70000832FFF78DFF38E05049FFF729F9061EBC
:101B800004D04D48FFF7EAFE4D4811E0201C4D49B6
:101B9000FFF71EF9071E04D04B48FFF744F9012553
:101BA00033E0201C4949FFF713F9002803D04848C7
:101BB000FFF739F9D0E7201C4649FFF709F900285B
:101BC00005D03D48FFF706FF011C43480BE0201CF1
:101BD0004249FFF7FDF8002809D03748FFF7E3FE38
:101BE0000123191A3E48FEF7CBFD0025B5E7201C5E
:101BF0003C49FFF7EDF8061E04D03B48FFF713F908
:101C000027B0F0BD201CFFF70EF9371C82E70D2826
:101C100000D17FE77E2F00DD7CE7E055013779E7D3
:101C2000002D03D104A8FFF7E5FA71E7012D00D0DC
:101C30006EE70A23009A204E5A430836B618301C25
:101C40000292FFF7D7FA281CFEF7BAFA019B01337C
:101C500001930822B35E184A0392019A9A4200DA6D
:101C600056E71248FEF78CFD331C08330193317898
:101C70001E48FEF785FD019B01369E42F7D11C48A8
:101C8000FEF77EFD009B01330093652B03D10023FB
:101C9000009301933CE7029A039B944663441A2203
:101CA0009B5E002BF4D00023F3E7C04656260000CD
:101CB0007326000080260000E40200108C2600003D
:101CC0009326000099260000A0260000A42600000C
:101CD000AB260000B0260000BC260000C526000090
:101CE000D1260000DA260000E1260000F5210000E0
:101CF000F12400007FB522486946FFF7A2F802A947
:101D00002048FFF79EF86846FFF774FA1E48FFF771
:101D100041F8FA2000258000FEF752FA0020FEF775
:101D2000D5F92C1C2E1C0120FEF740FAF000684467
:101D3000FFF760FAFEF7C4F9144B984204DD012363
:101D400000209E1BFEF7C2F9FEF7F2F900280FD023
:101D5000032D14D0FEF7B4F9231A58424341ED186D
:101D6000002C05D10A48FFF715F8FEF7A9F9041C65
:101D7000FEF7DEF9431E984140420440D3E77FBDA1
:101D8000F0260000012700001227000010270000A5
:101D9000F725000070B50F2A32D9041C0C430B1C28
:101DA000A40731D1151C041C103D2D0901352D014E
:101DB00049191E6826605E6866609E68A660DE68D7
:101DC0001033E66010349942F3D10F2345191340C4
:101DD000032B1BD91C1F0023A4080134A400CE58D8
:101DE000EE500433A342FAD1ED18C91803231A4068
:101DF00005D00023CC5CEC5401339342FAD170BD82
:101E0000051C002AF5D1FAE7051CF2E71A1CF8E7D1
:101E100070B583073FD0541E002A3BD0CEB2031CBE
:101E2000032503E0621E002C34D0141C01335A1E1B
:101E300016702B42F6D1032C24D9FF250D402A021F
:101E400015432A0415430F2C11D9261C103E3609C0
:101E5000013636011A1C9B19156055609560D560D6
:101E600010329342F8D10F221440032C0AD9261FB6
:101E7000B6080136B6001A1C9B1920C29342FCD149
:101E800003221440002C05D0C9B21C19197001336B
:101E9000A342FBD170BD141C031CCCE700224308F5
:101EA0008B4274D303098B425FD3030A8B4244D322
:101EB000030B8B4228D3030C8B420DD3FF22090264
:101EC00012BA030C8B4202D31212090265D0030B23
:101ED0008B4219D300E0090AC30B8B4201D3CB0319
:101EE000C01A5241830B8B4201D38B03C01A52415B
:101EF000430B8B4201D34B03C01A5241030B8B425D
:101F000001D30B03C01A5241C30A8B4201D3CB0247
:101F1000C01A5241830A8B4201D38B02C01A52412C
:101F2000430A8B4201D34B02C01A5241030A8B422F
:101F300001D30B02C01A5241CDD2C3098B4201D347
:101F4000CB01C01A524183098B4201D38B01C01AC5
:101F5000524143098B4201D34B01C01A524103093C
:101F60008B4201D30B01C01A5241C3088B4201D3EB
:101F7000CB00C01A524183088B4201D38B00C01A98
:101F8000524143088B4201D34B00C01A5241411ABF
:101F900000D20146524110467047FFE701B50020CC
:101FA00000F0FCF802BDC0460029F7D003B5FFF7EA
:101FB00075FF0EBC4243891A1847C04603460B43BF
:101FC0007FD4002243088B4274D303098B425FD332
:101FD000030A8B4244D3030B8B4228D3030C8B425E
:101FE0000DD3FF22090212BA030C8B4202D3121244
:101FF000090265D0030B8B4219D300E0090AC30B19
:102000008B4201D3CB03C01A5241830B8B4201D3C5
:102010008B03C01A5241430B8B4201D34B03C01AAE
:102020005241030B8B4201D30B03C01A5241C30A26
:102030008B4201D3CB02C01A5241830A8B4201D397
:102040008B02C01A5241430A8B4201D34B02C01A81
:102050005241030A8B4201D30B02C01A5241CDD226
:10206000C3098B4201D3CB01C01A524183098B4271
:1020700001D38B01C01A524143098B4201D34B015A
:10208000C01A524103098B4201D30B01C01A5241BD
:10209000C3088B4201D3CB00C01A524183088B4244
:1020A00001D38B00C01A524143088B4201D34B002D
:1020B000C01A5241411A00D201465241104670479F
:1020C0005DE0CA0F00D04942031000D340425340A4
:1020D00000229C4603098B422DD3030A8B4212D364
:1020E000FC22890112BA030A8B420CD38901921196
:1020F0008B4208D3890192118B4204D389013AD0D3
:10210000921100E08909C3098B4201D3CB01C01AA7
:10211000524183098B4201D38B01C01A52414309BA
:102120008B4201D34B01C01A524103098B4201D3A8
:102130000B01C01A5241C3088B4201D3CB00C01A15
:10214000524183088B4201D38B00C01A5241D9D22D
:1021500043088B4201D34B00C01A5241411A00D2AE
:102160000146634652415B10104601D34042002BAA
:1021700000D54942704763465B1000D3404201B529
:10218000002000F00BF802BD0029F8D003B5FFF7DE
:1021900015FF0EBC4243891A1847C0467047C04617
:1021A00000000000000000BE80B8A8A880BE88B86B
:1021B00080BA00B8A8F800B8A8B880BEA29C80B8C1
:1021C000A8B880849EA480A4AA9200000000000009
:1021D000000049636869676F20446F74205320567C
:1021E00065722E25730A00302E382E3300253038C4
:1021F0006C582000202530325800202530345800FB
:10220000202530384C580004026D03646C056706C5
:1022100008096607650B0A37303838393861386382
:102220003838383730303000323036306130323084
:10223000323032306638303000373038383038306D
:102240003833306330663830300037303838303823
:10225000333030383838373030300033303530397B
:102260003039303930663831303030006638383007
:102270006630303830383838373030300037303822
:1022800030663038383838383837303030006638D3
:102290003838303831303130323032303030003749
:1022A0003038383838373038383838373030300010
:1022B00037303838383838383738303837303030C9
:1022C00000373038383838383866383838383830A9
:1022D000300066303438343837303438343866308B
:1022E00030300037303838383038303830383837D8
:1022F000303030006630343834383438343834389C
:10230000663030300066383830383066383830382B
:10231000306638303000663838303830663838301B
:10232000383038303030003730383838303830399D
:102330003838383738303000383838383838663838
:102340003838383838383030003730323032303280
:102350003032303230373030300033383130313095
:102360003130313039303630303000383839306142
:102370003063306130393038383030003830383000
:1023800038303830383038306638303000383864DB
:10239000386438613861386138383830300038385E
:1023A0006338633861383938393838383030003775
:1023B00030383838383838383838383730303000F6
:1023C0006630383838383838663038303830303061
:1023D00000373038383838383861383930363830A6
:1023E0003000663038383838383866303930383868
:1023F00030300037303838383037303038383837C8
:1024000030303000663832303230323032303230B4
:102410003230303000383838383838383838383892
:10242000383730303000383838383530353035309E
:102430003230323030300038383838613861386105
:102440003835303530303000383838383530323083
:102450003530383838383030003838383835303260
:10246000303230323032303030006638303831304F
:102470003230343038306638303000373034303431
:102480003034303430343037303030003838353054
:1024900066383230663832303230303000373031E2
:1024A000303130313031303130373030300032304F
:1024B0003530383830303030303030303030003037
:1024C00030303030303030303030306638303000FE
:1024D00034303230313030303030303030303030F5
:1024E000004D41544C45442053484F57202530322D
:1024F000580A004C38454747003861613263633001
:1025000030363539356630313000430030303338BD
:1025100030343034333830343034333800303033C2
:10252000383034303430383130323033630030308A
:102530003138323830383038303830383363003062
:102540003037333935383538356235393537360037
:10255000413136004C3843454700303063396161C2
:1025600061636163616161613639004C384552389D
:10257000454731364531360061666561616130300D
:102580003637323532353737003034334532463519
:1025900036364144364143373800413400000000AC
:1025A000D325000023260000342600004526000025
:1025B00001260000122600004338473843383E47C2
:1025C000340063313532663464323031346134354D
:1025D00033300030303439346265663464613961D7
:1025E00066303000413800433136004731365238CA
:1025F0004732004332433843380043384538473880
:102600000030303630663036306630393066303043
:102610003000303039306230663064303930663006
:102620003030003030343965626566656434393481
:1026300066303000303034363466343665663539CD
:102640003466303000303065363466653634666561
:102650003964663030004D41544C45442053484F56
:102660005720004D41544C45442050555348202597
:10267000640A004D41544C454420505553482000B5
:102680004D41544C45442053455420004D41544C39
:10269000454420434C454152004D41544C45442053
:1026A00052554E004D41544C45442053544F500018
:1026B0004D41544C454420534156450053415645E5
:1026C0002025640A004D41544C4544204C4F414460
:1026D000004C4F41442025640A004D41544C454470
:1026E00020425245414B004D41544C45443031004D
:1026F00030303938653431663166653439383030D8
:1027000000303838346534336533656534383430F7
:0B27100038004344453243444532008A
:10271C000300000004000000C1110000C210000002
:10272C00D10F0000EE0E0000170E00004D0D000042
:10273C008E0C0000D90B00002F0B00008E0A00003D
:10274C00F709000067090000E008000061080000BC
:10275C00E8070000770700000B070000A606000042
:10276C0047060000EC050000970500004705000037
:10277C00FB040000B30400007004000030040000EF
:10278C00F4030000BB0300008503000053030000AA
:10279C0023030000F6020000CB020000A30200009D
:1027AC007D020000590200003802000018020000EF
:1027BC00FA010000DD010000C2010000A9010000C7
:1027CC00910100007B010000650100005101000037
:1027DC003E0100002C0100001C0100000C01000057
:1027EC00FD000000EE000000E1000000D40000003D
:1027FC00C8000000BD000000B2000000A8000000EE
:10280C009F00000096000000E803000015CD5B0758
:10281C00E5559A15B53B121F3313490517220000D5
:10282C0028220000392200004A2200005B2200000E
:10283C006C2200007D2200008E2200009F220000EE
:10284C00B0220000C1220000D2220000E3220000CE
:10285C00F4220000052300001623000027230000AB
:10286C0038230000492300005A2300006B2300008A
:10287C007C2300008D2300009E230000AF2300006A
:10288C00C0230000D1230000E2230000F32300004A
:10289C000424000015240000262400003724000026
:1028AC0048240000592400006A2400007B24000006
:1028BC008C2400009D240000AE240000BF240000E6
:0828CC00D0240000E726000003
:00000001FF
