:10000000500B0010891500008515000085150000B3
:1000100000000000000000000000000000000000E0
:100020000000000000000000000000008515000036
:10003000000000000000000085150000050B000016
:100040008715000087150000871500008715000040
:100050008715000087150000871500008715000030
:100060008715000087150000871500008715000020
:100070008715000087150000871500008715000010
:100080004104000087150000871500008715000057
:10009000871500004D160000000000000000000061
:1000A000871500008715000087150000000000007C
:1000B00087150000871500008715000087150000D0
:1000C000084A5168136811609168D8025160D1687C
:1000D0004340C80C484058401B0A58409160D060CB
:1000E0007047C04600000010002210B58C5C835C95
:1000F000002C05D0002B05D0A34203D10132F5E737
:10010000012000E0002010BD00230278303AD1B277
:10011000092904D80A214B4301309B18F5E7181C24
:100120007047031C10B51C781A1A002C03D08C429F
:1001300003D00133F7E701225242101C10BD10B565
:10014000041C0134631E1878002802D001F0F0FA74
:10015000F7E70A2001F0ECFA10BD034B18684342A0
:100160005841C0B27047C04640000150074B1A6862
:1001700053425341DBB2064A002B04D011680029D8
:1001800001D10131516013607047C04640000150F9
:10019000740100100020034B5A68824201D058605D
:1001A0000130704774010010034B1A68002A01D116
:1001B00001321A607047C04604C00040034B1A6801
:1001C000002A01D000221A607047C04604C00040D7
:1001D00008B500230F4A104913700A6080210F4AA6
:1001E00013600F4A13600F4A13680B431360172202
:1001F0000D4B1A600D4B1B321A600D4B2F3A1A60D3
:1002000080220C4B52021A6001220B4B1A70FFF72E
:10021000CBFF08BDB9060010A0020010B00200100C
:10022000A4020010808004400CC0004018C00040B0
:1002300014C0004000E100E010E400E0F7B5674AB8
:100240001368002B07DD013B1360002B00D0C4E0D6
:10025000634A9360C1E0634A1368002B00DDBAE093
:10026000614D2C68291C601C28602278002A03D16B
:100270005B4B2C609A60B0E03E2A03D15B4A136965
:10028000013304E03C2A04D1584A1369013B13614D
:10029000E6E72023161C9E43331E4F2B05D1A31CDB
:1002A0002B606378514A303BF1E7202AD8D04C2E9E
:1002B00017D1A31C2B6067781020391C30390193AB
:1002C00001F0A6FE494E7061312FC9D1E31C2B60AD
:1002D000A378362B02D1353B7361C1E7019B2B60BC
:1002E000BEE7432E0FD0442E0FD0452E0FD0462E02
:1002F0000FD0472E0FD0412E0FD0422E0FD0522EAE
:10030000AED1533B0CE000230AE0022308E00423B3
:1003100006E0052304E0072302E0092300E00B23A5
:10032000A21C0A6062782B2A01D1013304E02D2A35
:1003300001D1013B00E008600D682C486C1C0C608A
:100340002C784269322C0ED0342C0ED0382C0ED0A2
:10035000312C0ED02E2C04D1D40FA41864101219F5
:1003600008E00D6006E0082204E0042202E0022218
:1003700000E010220C68651C0D6025782E2D04D13C
:10038000D10F89184910521806E0362D01D1102AD4
:1003900001D00C6000E00122114C002B09DB0C2184
:1003A000056969435B18591C01D03B2B03DD002311
:1003B00007E0591CFBD09B00C01881690C4B1960E9
:1003C0000123A360C8239B005A43044B1A60054BCA
:1003D000D2101A6001E0013B1360F7BDA4020010C7
:1003E00074010010B0020010A00200100000001004
:1003F00018C000400023C15C094AD154C15C0029E7
:1004000002D00133802BF6D1064B1A600322064B33
:100410001A6101325A610022044B1A607047C046CB
:10042000B9060010A002001000000010A402001085
:10043000024A1368DB4313607047C04680000150D6
:10044000074B10B51A681C1CD30707D5054B9B68D2
:10045000002B01D0FFF7ECFF0123236010BDC04645
:1004600000C0004074010010D021102008B5074BD7
:100470001960074B1A6882431A60064A11601A68AD
:10048000B0390A431A60FFF7A3FE08BD9440044048
:1004900000800150A0400440F7B50020554B187073
:1004A0000026554BC31801301E700828F8D1D02102
:1004B00080248027514BBF001960514BBC461A68FD
:1004C000802522431A604F4A703C11601A68ED0083
:1004D00022431A604C4A0C3C11601A6802431A60AD
:1004E0004A4A11601A6822431A60494A1160494A0F
:1004F00014683C431460484C013F21601468FF3F7E
:100500003C431460454C21601C6827431F606746CC
:10051000434C21601C683C431C60D124414F3C602B
:100520001F682F4380251F603F4F2D013C601F68CF
:100530002F4320251F603D4F39601F682F431F60E8
:100540003B4F396040271968394319600121394B05
:100550001C6013680B431360374B49181C60136809
:10056000194311600421354B1C6013680B43136061
:10057000334B1C6013681843106032488589C28968
:10058000018A438A0127304CBC46345D2E4F0197C7
:10059000632C05DC6746A740BCB22543224305E037
:1005A0006746643CA740BCB221432343019F01241A
:1005B0000837BF5D632F03DCBC40224392B203E0E7
:1005C000643FBC4023439BB20136082EDAD14382FC
:1005D0008581C2810182A02012B2C005920012184A
:1005E0002DB215601BB2194A9B009B1809B2196005
:1005F000F7BDC046B8060010A802001050400440E5
:1006000000800050304004402C4004401C40044016
:1006100038400440008001501440044060400440D1
:100620006440044068400440744004403440044046
:100630004C400440784004407C40044080400440EA
:100640009040044074010010F421000000000150AB
:10065000C243CB43D217DB1770B5194010400728AF
:1006600000DD0720072900DD0721144E144B711A05
:10067000C97B0C229D5E10229C5E0122632902DC54
:100680008A40154302E064398A401443315C0122F8
:10069000632902DC8A40954302E064398A4094432E
:1006A0000E215A5EA0219200C9055218156012222F
:1006B0009B5E044A9B009B181C6070BDF4210000E7
:1006C0007401001000000150094A0E21535EA02160
:1006D0009B00C9055B180C20115E19601221535E46
:1006E00004499B005B181021525E1A607047C04697
:1006F0007401001000000150072310B50A4C207847
:10070000C1081840094B5B5C0341DB0702D5FFF7CA
:100710009FFF01E0FFF7D8FF23780133DBB2402BC6
:1007200000D10023237010BDB8060010A8020010ED
:1007300008B501F01DF8034A034B1A60034A044B45
:100740001A6008BD311700004C07001005170000A3
:100750004807001008B5011C044801F059FC0722A5
:10076000034B01381860034B1A6008BD00366E0158
:1007700014E000E010E000E0034B1A6810181A685B
:100780008242FCDD7047C04644070010F8B5061CE5
:1007900000240025375D3B1C2B41DB0704D5281CBA
:1007A000211CFFF755FF01E0FFF78EFF0120013507
:1007B000FFF7E2FF082DEED10134082CE9D1FFF755
:1007C00083FFF8BD0023C15C024AD1540133082BDA
:1007D000F9D17047A802001007B5019001A8FFF7F2
:1007E000F1FF07BD002370B5C25C141C303C092C1E
:1007F00004D92024A243413A052A02D80133102B00
:10080000F2D101221A409B180A1C5B100824551AC9
:10081000E41AA54203DAD45C14700132F6E7091930
:100820000024025D131C303B092B07D9313B052BFB
:1008300003D9131C413B052B14D80A336210E5077A
:1008400006D50F268A181578B5432B43137006E09A
:100850008D180F222E781B01324013432B70013468
:10086000102CDED170BDF7B50C1C0A1C01900834A9
:10087000002313700132A242FAD1019AD25C141CF7
:10088000303C092C0AD9313C052C01D8573A04E0F8
:10089000141C413C052C1FD8373A141C01229446E5
:1008A000171CDD105E1002321640AD00AD19664611
:1008B000AE401F40BF00F5B20326201CB61A3041DF
:1008C000061CF00703D5C819865C2E438654013AEE
:1008D000F2D20133102BD0D1F7BD08B50149FFF793
:1008E00081FF08BDA802001030B5002485B0114872
:1008F0006946FFF777FF104802A9FFF773FF251C31
:10090000E8006844FFF742FF201C642101F066FC08
:10091000632901D101235D1B00F0EEFE002806D102
:10092000962301349B009C42EAD1013000E0002074
:1009300005B030BD80220000912200001FB50D4897
:100940006946FFF74FFF0C4802A9FFF74BFF0B4822
:10095000FFF750FD0024E0006844FFF733FF08482C
:10096000FFF70AFFFFF716FC0028F4D101231C1B38
:10097000F1E7C0468022000091220000A222000080
:100980001027000010B500240720E1102040FFF7D9
:100990005FFE01340120FFF7EFFE402CF4D1F2E7B7
:1009A00010B50024084B00211868231C9533FF3331
:1009B0005B001952E300C0180822013401F052FA1A
:1009C000652CEFD110BDC046B406001000238B4249
:1009D00006DAE022D2019A181278C2540133F6E7FF
:1009E00070478021F8B5114E114B124F301CC900D1
:1009F0003B60FFF7EBFF104D301C291CFFF774FB29
:100A0000041E0AD0281CFFF79AFBCA233A689B00F1
:100A1000D45E631E9C41E4B206E0291C0822301C0F
:100A200001F0E2F9FFF7BCFF201CF8BDB402001092
:100A3000BC020010B4060010AB220000802108B5F3
:100A40000248C90001F0C3F908BDC046B402001055
:100A500080210E4A090213680D480B431360F022EF
:100A600040210C4B52001A600B4A13688B431360F1
:100A700002230A4A00211360012201600260084833
:100A80000360084B19601A607047C04680800440BC
:100A9000D48004402480044038820440D080044044
:100AA00070800440748004400221084A13680B439C
:100AB0001360074A491813680B431360054A01394C
:100AC00013680B43136030BF7047C046008003407B
:100AD00010ED00E03882044008B5074B074A1B6858
:100AE000002B00D15361536901335361044A93428F
:100AF00001DDFFF7D9FF08BD40000150740100106F
:100B0000400D030008B5064A136801331360FFF770
:100B1000F3FDFFF72BFBFFF791FBFFF7DDFF08BDB0
:100B2000440700100022F0B5A9B0002308AD5355CA
:100B30000132802AF9D1FF21864AD1540133039230
:100B4000082BF8D10023002206A95A540133082BA0
:100B5000F9D1141C00920292019200227E4B5A613C
:100B600000F0CAFD002800D1B7E000F0CBFD0A2854
:100B700000D0A9E00026281C78492E55FFF7B4FACA
:100B8000B04209D006A90C780BA8FFF72BFE7448D9
:100B9000211C00F05DFF5DE0281C7249FFF7A4FAFC
:100BA000041E1ED00BA8FFF7AFFA0F2302111A4044
:100BB0001840131C3733092A00DC073B05AE33709D
:100BC000031C3733092800DC073B0024301C06A92E
:100BD0007370B470FFF706FE6348311C00F038FFF5
:100BE000BEE7281C6149FFF77FFA061E34D01B239D
:100BF00004AA9B18181CFFF787FA071E652FAFD8A9
:100C00001B2304AA9B18181C2021FFF78AFA00282E
:100C1000A6DB1B2304AA564C9B1801301E18236820
:100C2000F9005918301CFFF7DDFD301C06A9FFF74D
:100C3000D9FD301C2021FFF774FA6423002804DB5F
:100C400001303018FFF760FA031C95372268FF3730
:100C50007F00BB52002483E7281C4649FFF744FA73
:100C6000041E03D0FFF79CFE0196F3E7281C4249BF
:100C7000FFF73AFA071E05D04048FFF760FA012354
:100C800001936DE7281C3E49FFF72EFA002804D097
:100C90003C48FFF754FA0197DCE7281C3A49FFF774
:100CA00023FA041E03D0FFF7C9FE384809E0281CC8
:100CB0003749FFF719FA002800D151E7FFF791FEF5
:100CC0003448FFF73CFAC5E70D2800D148E77E2CF1
:100CD00000DD45E72855013442E7019E331E0ED161
:100CE00006AA9A5C0399CA540133082BF8D100264E
:100CF000081CFFF767FD009B009301962DE71C4F32
:100D0000009BD8003B681818FFF740FD029B39682C
:100D100001330293009B02989533FF335B005A5EC8
:100D2000009B9042E8DB01331A1C653A501E824159
:100D3000524213401A1C9532FF325200525E002A72
:100D400002D000220292D7E700989842EBD1161CFD
:100D50000292D1E73907001074010010B42200009C
:100D6000C1220000D3220000E0220000F022000097
:100D7000B4060010FC22000009230000102300002C
:100D8000142300001B230000202300002723000061
:100D90002C23000033230000F0B585B00C1C02A901
:100DA00001930092FFF75FFD0023019A93421FDA3F
:100DB0000099009A8E1A0A9A964217DA1A19072A87
:100DC00012D8072910D80122171C944602AD5D5D88
:100DD0008F403541664607482018C25CBA43C2546A
:100DE000354201D03A43C2540131E2E70133DCE736
:100DF00005B0F0BD39070010F0B595B0AD48FFF76C
:100E0000F9FAFFF7C7F9AC4CAC4E201C311CFFF7C8
:100E10002AFD301CFFF7D6FCFFF7BCF9039400282D
:100E200002D1FFF74DF9EEE7A54C0023251C236006
:100E30006420FFF7A1FCA34B1B68002B05D12A6897
:100E4000A14B9A42F4DD15B0F0BD002323609F4B07
:100E500010A91A1C103231CA31C1126820330A603D
:100E60000EAA03CB03C29A48FFF7C4FA0825002450
:100E70000027331901341F70082CF9D12A1C03985C
:100E8000083A391C231C0094FFF786FF2A1C391CE2
:100E9000231C90480094FFF77FFF301CFFF792FC63
:100EA000C82068439130FF30013DFFF765FCBD422B
:100EB000DDD1FFF705F9032318400490FFF700F98F
:100EC00001232E1C18400390FFF764F90F23371CF1
:100ED0000B9608960A9307930596099606960024A2
:100EE0000022764BE31801341A70082CF8D107223F
:100EF0001020089B0CA913400C93069B0C9A9B0096
:100F000000940918C858524200210423FFF744FFF7
:100F10001020049B0C9A0CA99B0000940918C85837
:100F2000A21A00210423FFF737FF072208200B9B9A
:100F30000CA913400C93099B00949B000918C858F6
:100F400004210C9A0B1C5242FFF726FF0821039B39
:100F50000CAA52189B00D35804390D930C9B0D9882
:100F6000E21A00940B1CFFF717FF5448FFF72AFC06
:100F70000A20FFF701FC002F06D1FFF70BF900282C
:100F800003D05548FFF736FA0127059B002B30D1D7
:100F9000079B01359D422CD1089B013308935B07C9
:100FA00017D14E48FFF726FAFFF78AF8062101F01D
:100FB00025F8059B032900D80B1C002F0CD06A00D4
:100FC0000792642A0EDC049A0025069204930127F6
:100FD0000FE00795059D0CE0049A0795069204938F
:100FE0003D1C06E00025049A049301232F1C069261
:100FF00005930A9B741C9C4205D0099A261C039BEE
:101000000A9C039208E00B9B01330B935B0708D00B
:101010000026099A039B0392039A0A940992039368
:101020005DE7059B012B02D12C48FFF7E3F9FFF7A1
:1010300047F80323059A1840434243410026012AFA
:10104000EAD1B74201D13E1CE6E76400642C01DC22
:10105000059FE1E7069B039A21481343B34204D05E
:10106000039B2048012B00D01F48FFF7C3F9FFF76F
:1010700091F8082407220899069B0A409B000094D7
:1010800010A95858524200210423FFF785FE04217D
:1010900000220B1C0D980094FFF77EFE0748FFF717
:1010A00091FB6420FFF768FBFFF774F80028E0D09D
:1010B000A4E6C04638230000422300003907001090
:1010C000440700104000015010270000F4210000E8
:1010D0007E230000532300006423000067230000E8
:1010E0006B230000732300007A230000F8B55E48EC
:1010F000FFF780F9FFF74EF85C4C5D48211CFFF7C5
:10110000B2FB201CFFF75EFBFFF744F80028F3D08A
:10111000584E0023351C33606420FFF72DFB564BDF
:101120001B68002B04D12A68544B9A42F4DDF8BDA9
:10113000534D281CFFF75EF9211C5248FFF793FB23
:10114000201CFFF73FFB4D48FFF716FB281CFFF75D
:1011500051F9211C4C48FFF786FB201CFFF732FB9E
:101160004648FFF709FB281CFFF744F9211C4748B4
:10117000FFF779FB201CFFF725FB4048FFF7FCFA3F
:101180004348FFF737F9211C4248FFF76CFB201C4E
:10119000FFF718FB3948FFF7EFFA0023FF22E2546C
:1011A0000133082BFAD100231D1C3360FEF7F2FF38
:1011B000071E0CD0002D0AD13748FFF71BF92B1C56
:1011C0000021E21801331170082BF9D107E0201C2F
:1011D000FFF7F8FA0A20FFF7CFFA3D1CE6E7FA21FD
:1011E0002E4B30688900181A00F012FF071C2C489B
:1011F000FFF700F9211C2B48FFF735FB2A4D31681A
:10120000281C00F025FC281C391C00F021FC381C8F
:101210000A2100F06DFE254D80002818211C8068F1
:10122000FFF721FB4022A379201C1343A371FFF792
:10123000C9FA1248FFF7A0FA381C0A2100F0DEFEB6
:10124000890069188868211CFFF70DFB201CFFF737
:10125000B9FA0A48FFF790FA201CFFF7B3FA0748DB
:10126000FFF78AFA43E7C0468123000039070010E0
:101270008E2300004407001040000150102700009A
:101280009F230000A1230000B2230000C32300001D
:1012900070230000D4230000E523000040420F002B
:1012A000E8230000EE230000FF23000000010010EF
:1012B00008B50022064B07481B6859424B415B4268
:1012C00083540132082AF5D1FFF77CFAF1E7C046D2
:1012D0004000015039070010F8B56048FFF78AF860
:1012E000FEF758FF5E4C5F48211CFFF7BCFA201C3C
:1012F000FFF768FAFEF74EFF0028F3D05A4F00239D
:101300003D1C3B606420FFF737FA584B1B68002BED
:1013100004D12A68564B9A42F4DDF8BD554D281C7D
:10132000FFF768F8211C5448FFF79DFA201CFFF7CF
:1013300049FA4F48FFF720FA281CFFF75BF8211CF9
:101340004E48FFF790FA201CFFF73CFA4848FFF799
:1013500013FA281CFFF74EF8211C4948FFF783FABF
:10136000201CFFF72FFA4248FFF706FA4548FFF71F
:1013700041F8211C4448FFF776FA201CFFF722FAB7
:101380003B48FFF7F9F90023FF22E2540133082B11
:10139000FAD10025201CFFF715FA3D60FEF7FAFE92
:1013A000FEF7F8FE0028FBD03848FFF723F80122AB
:1013B000E9108A400723111C2B40E25C201C8A4361
:1013C0000135E254FFF7FEF9402DE9D13048FFF72F
:1013D00011F83048211CFFF746FA2F4E3968301CAF
:1013E00000F036FB3B682D48D917890EC9188911C2
:1013F00000F00EFE051C301C291C00F029FBFA2D04
:1014000000D9FA25281C0A2100F072FD244E800024
:101410003018211C8068FFF726FA4022A379201C8F
:101420001343A371FFF7CEF91148FFF7A5F9281C64
:101430000A2100F0E3FD890071188868211CFFF77C
:1014400012FA201CFFF7BEF90948FFF795F9201C96
:10145000FFF7B8F90648FFF78FF93EE703240000CD
:101460003907001009240000440700104000015013
:10147000102700009F230000A1230000B2230000DA
:10148000C323000070230000D42300001A240000AE
:10149000E8230000EE230000FF230000A0860100E7
:1014A00000010010F7B50A2600900191009D019AF5
:1014B000009B083AEB1A934227DA0023174A53613C
:1014C000174A1478FF21D1540133082BFAD1002395
:1014D000EA5C1348C2540133082BF9D1FFF772F9C3
:1014E0001048211C00F0B4FA5A270A20FFF744F9EB
:1014F000FEF750FE041E0DD100F0FEF800280AD1C0
:10150000013F002FF1D10135D1E7013E002ECDD1B1
:10151000FFF7CAFA0124201CFEBDC046740100106A
:1015200039070010C122000008B5FEF7B5FFFEF72D
:101530009BFF0F4A0F4B1A6007220F4B1A60FFF7F1
:10154000F7F80E4B1B68002B09D16420FFF714F944
:10155000F7E7FFF751FCFFF7BFFEFFF7C7FD0848AD
:1015600064212830FFF79EFF0028F2D1FFF7DAFA56
:10157000CF07000014E000E010E000E04000015060
:10158000F4210000FEE7FEE70022012403261E4BA3
:101590001E481A601E4B1F4D02601A601C602968AD
:1015A000B143214329601C490A601C490A600C6050
:1015B00081211B4A7F3411601A490A68A2430A60DC
:1015C0001A1C0121184B1B680B42FAD0174B1960EB
:1015D000032303600023136011601549154A11604D
:1015E000154A16499A188A4204D21549C958043333
:1015F0001160F5E7134B144A934202D2002204C350
:10160000F9E7FFF791FFFEE7508104407080044046
:101610007480044010C00340408004404480044073
:1016200008800440388204400C80044078800440E4
:101630005F00010080800440000000107401001071
:1016400048260000740100105007001070B5254BAB
:101650001B68DBB2DA0743D407221340022B1CD0ED
:10166000214C042B38D12148051C438881889BB22A
:1016700089B22268D2070BD51D4A12687F29F8DC8F
:101680005E1CD2B2EB181A727F2301313340F0E7AF
:101690009AB28BB242808380D9E716498A890C1CA2
:1016A00092B2002A16D0101C0B8910389BB25D1C18
:1016B000E3181B7C0E4EDBB233607F23013A2B40D4
:1016C000824202D0002AF2D1101C9BB280B20B8160
:1016D0008881BCE7CA81BAE72368054B1B68B6E777
:1016E00070BDC04608800040148000408C0100108E
:1016F000008000400C020010014B988880B27047B7
:101700008C010010094B9A88002AFBD01A8892B2EB
:101710009918087A7F2101320A40C0B21A8072B645
:101720009A88013A92B29A8062B670478C01001092
:101730000D4B9A897F2AFBD872B6DA89002A0CD021
:101740005A8992B2991808747F2101320A405A814D
:101750009A89013292B29A8103E00122DA81034B25
:10176000186062B67047C0460C020010008000404E
:1017700010B572B6D1238021194A49011360194A64
:1017800004241360184A194813680B43136002229B
:10179000174B18491A608323174A136000230B6004
:1017A000046016488134046003201060144A8430B9
:1017B0001060144A07381060134A138153819381D3
:1017C000D381124A138053809380C02207330B6069
:1017D0000F4B1A7080220F4B92031A6062B610BD35
:1017E000A8400440A44004408080044000800040A1
:1017F00098800440048000400C8000402880004015
:1018000008800040308000400C0200108C01001065
:1018100015E400E000E100E010B5041E0A2C02D13E
:101820000D20FFF7F9FF074A1368002B03D0591C5E
:1018300011601C7005E0044B1B68002B01D0201CBC
:10184000984710BD9C0200104C07001010B5041CF6
:101850002078002803D00134FFF7DEFFF8E710BD41
:10186000F0B5071C0C1C8BB03878002800D1DCE0E8
:10187000252801D0013776E07E78302E03D1FB1C7D
:10188000BE78012207E02D2E02D0BB1C002202E010
:101890000222BE78FB1C009200220292321C303AD7
:1018A0001F1C092A08D80A2202994A439619303E79
:1018B00002961E780133F1E72022311C91430A1E63
:1018C0004C2A05D10099483A11431E7800910137FE
:1018D000002E00D1A9E0331E602B01D9203BDBB2E2
:1018E0004F2B14D008D8432B33D0442B3FD00222A7
:1018F0000392422B3DD035E0552B38D0582B2FD0BA
:10190000532B2FD12568231D01932B1C01E00822A6
:101910002EE05C1B01335A1E1278002AF9D1009B7D
:101920009B0709D4029B661C9C4204D22020FFF72F
:1019300073FF341CF3E7341C281CFFF787FF029B5E
:101940009C4201D3019C8FE72020FFF765FF013403
:10195000F5E72068231DC0B20193FFF75DFFF1E7B3
:10196000102205E0301CFFF757FF0194EAE70A2236
:101970000392221D01922568442B06D1002D04DA22
:101980000823009A6D421A43009200230493281CF6
:10199000039900F033FB281CCBB20C1C0399059370
:1019A00000F0A6FA051C092C07D92723782E00D0B1
:1019B000203B059A9B18DBB20593049B04995C1CA1
:1019C000059B06AA30335354002D03D0102C01D0B0
:1019D0000494DCE7009B1B0703D52D2306AA1355AF
:1019E000013430230393009BDB0701D420230393AE
:1019F000251C009B9B0709D4029B6E1C9D4204D2B0
:101A00000398FFF709FF351CF3E7351C013C06ABD3
:101A1000185DFFF701FF002CF8D1029B9D4291D287
:101A20002020FFF7F9FE0135F7E70BB0F0BD074BBB
:101A300070B50D1C1C1C1E6818602878002803D087
:101A40000135FFF7E9FEF8E7266070BD4C0700108E
:101A50000FB407B504A901C90191FFF701FF03B055
:101A600008BC04B018470EB417B505A908C9074C3F
:101A700001912060181CFFF7F3FE00232268137009
:101A8000236017BC08BC03B01847C0469C02001076
:101A90000EB433B5064C05A908C925682060181C8A
:101AA0000191FFF7DDFE256033BC08BC03B0184789
:101AB0004C07001070B5041C1D481E1C151CFFF7B8
:101AC000C7FF022E1FD0042E26D0012E2BD1261C9C
:101AD000331BAB4205DA31781648FFF7B9FF013600
:101AE000F6E72020FFF798FE261C331BAB421ADADC
:101AF00033782E201A1C203A5E2A00D8181CFFF7D3
:101B00008BFE0136F1E721880B48013DFFF7A0FF6E
:101B10000234002DF7D106E0084802CC013DFFF762
:101B200097FF002DF8D10A20FFF776FE70BDC04662
:101B30002D260000342600003A2600004026000032
:101B4000F7B50024144D061C2B680191A3420AD15D
:101B500000201FE00D2817D0082809D1002C02D042
:101B6000013CFFF759FE2B6898470028F2D1EFE7B8
:101B70001F28F8DD019B013B9C42F4DA3055671CBD
:101B8000FFF74AFE3C1CEEE700230A203355FFF71F
:101B900043FE0120FEBDC0464807001038B5044C86
:101BA00025682060081C111CFFF7CAFF256038BD9E
:101BB000480700100023021C70B50B601068037802
:101BC000202B02D101301060F8E700252D2B03D126
:101BD000431C136043780135302B1BD11068431C24
:101BE00013604378622B06D0782B09D1831C1360D5
:101BF0008378102613E0831C1360837802260EE09E
:101C00000120202B29D9181C30380826092806D98C
:101C1000002022E0181C30380928F9D80A260024B0
:101C2000202B15D9602B01D9203BDBB2181C303892
:101C3000C0B2102803D9373BD8B20928E8D9B0423E
:101C4000E6D2744313680419581C10605B78E7E708
:101C5000002D00D0644201200C6070BD372300B518
:101C60008BB00093684605A9024B984706980BB0C5
:101C700000BDC046F11FFF1F362300B58BB0009397
:101C8000684605A9024B984706980BB000BDC046B0
:101C9000F11FFF1F3A2300B58BB00093684605A9DA
:101CA000024B984706980BB000BDC046F11FFF1FBE
:101CB000352300B58BB0009301900291684605A9C9
:101CC000024B984705980BB000BDC046F11FFF1F9F
:101CD000342300B58BB00093054B01900291039320
:101CE000684605A9034B984705980BB000BDC04650
:101CF000C05D0000F11FFF1F322300B58BB00093C1
:101D000001900291684605A9024B984705980BB0CF
:101D100000BDC046F11FFF1F332300B58BB00093F9
:101D2000054B0191029004936846039205A9034B69
:101D3000984705980BB000BDC05D0000F11FFF1F64
:101D4000382300B58BB0009301910290039268464E
:101D500005A9024B984705980BB000BDF11FFF1F66
:101D600038B5051C07200C1C011CFFF7A1FF00283B
:101D700006D10720011CFFF7BFFF00280ED01FE08F
:101D80000720011CFFF7B8FF00281BD10730011CFA
:101D9000FFF79EFF0028ECD0022016E0E021281C6F
:101DA000C901221CFFF7B8FF00280DD1E021281C33
:101DB000C901221CFFF7C4FF002807D0052004E05A
:101DC000032002E0012000E00420404238BD08B5B5
:101DD00072B6FFF7C5FF62B608BDE020C0017047CC
:101DE000802040017047C04670B50F2A32D9041CCC
:101DF0000C430B1CA40731D1151C041C103D2D09EC
:101E000001352D0149191E6826605E6866609E686E
:101E1000A660DE681033E66010349942F3D10F23D8
:101E200045191340032B1BD91C1F0023A4080134A0
:101E3000A400CE58EE500433A342FAD1ED18C918CD
:101E400003231A4005D00023CC5CEC5401339342A9
:101E5000FAD170BD051C002AF5D1FAE7051CF2E79E
:101E60001A1CF8E770B583073FD0541E002A3BD0F8
:101E7000CEB2031C032503E0621E002C34D0141CD8
:101E800001335A1E16702B42F6D1032C24D9FF259C
:101E90000D402A0215432A0415430F2C11D9261C84
:101EA000103E3609013636011A1C9B191560556023
:101EB0009560D56010329342F8D10F221440032C64
:101EC0000AD9261FB6080136B6001A1C9B1920C273
:101ED0009342FCD103221440002C05D0C9B21C1936
:101EE00019700133A342FBD170BD141C031CCCE755
:101EF000002243088B4274D303098B425FD3030A49
:101F00008B4244D3030B8B4228D3030C8B420DD35B
:101F1000FF22090212BA030C8B4202D312120902E9
:101F200065D0030B8B4219D300E0090AC30B8B4227
:101F300001D3CB03C01A5241830B8B4201D38B03D5
:101F4000C01A5241430B8B4201D34B03C01A52417A
:101F5000030B8B4201D30B03C01A5241C30A8B42BD
:101F600001D3CB02C01A5241830A8B4201D38B02A8
:101F7000C01A5241430A8B4201D34B02C01A52414C
:101F8000030A8B4201D30B02C01A5241CDD2C309BE
:101F90008B4201D3CB01C01A524183098B4201D33A
:101FA0008B01C01A524143098B4201D34B01C01A25
:101FB000524103098B4201D30B01C01A5241C3089D
:101FC0008B4201D3CB00C01A524183088B4201D30C
:101FD0008B00C01A524143088B4201D34B00C01AF8
:101FE0005241411A00D20146524110467047FFE764
:101FF00001B5002000F0FCF802BDC0460029F7D072
:1020000003B5FFF775FF0EBC4243891A1847C04657
:1020100003460B437FD4002243088B4274D3030949
:102020008B425FD3030A8B4244D3030B8B4228D3EA
:10203000030C8B420DD3FF22090212BA030C8B4210
:1020400002D31212090265D0030B8B4219D300E0B0
:10205000090AC30B8B4201D3CB03C01A5241830B35
:102060008B4201D38B03C01A5241430B8B4201D3E5
:102070004B03C01A5241030B8B4201D30B03C01A0E
:102080005241C30A8B4201D3CB02C01A5241830A88
:102090008B4201D38B02C01A5241430A8B4201D3B7
:1020A0004B02C01A5241030A8B4201D30B02C01AE1
:1020B0005241CDD2C3098B4201D3CB01C01A524148
:1020C00083098B4201D38B01C01A524143098B42D1
:1020D00001D34B01C01A524103098B4201D30B01BA
:1020E000C01A5241C3088B4201D3CB00C01A5241DF
:1020F00083088B4201D38B00C01A524143088B42A4
:1021000001D34B00C01A5241411A00D2014652413C
:10211000104670475DE0CA0F00D04942031000D35B
:102120004042534000229C4603098B422DD3030AB0
:102130008B4212D3FC22890112BA030A8B420CD3C0
:10214000890192118B4208D3890192118B4204D3E9
:1021500089013AD0921100E08909C3098B4201D369
:10216000CB01C01A524183098B4201D38B01C01AA3
:10217000524143098B4201D34B01C01A524103091A
:102180008B4201D30B01C01A5241C3088B4201D3C9
:10219000CB00C01A524183088B4201D38B00C01A76
:1021A0005241D9D243088B4201D34B00C01A52414D
:1021B000411A00D20146634652415B10104601D3DA
:1021C0004042002B00D54942704763465B1000D364
:1021D000404201B5002000F00BF802BD0029F8D004
:1021E00003B5FFF715FF0EBC4243891A1847C046D6
:1021F0007047C04604026D03646C056706080966F3
:1022000007650B0A532300004024000051240000FE
:10221000622400001E2400002F24000000000000A3
:1022200000000000007E09097E0000007F08087F92
:10223000007E09097E007F090906007F0909060062
:10224000030C700C030000007F06187F007F4949D3
:1022500049001F601F601F000000030C700C03008A
:102260007F494949007E09097E007F090976005FA0
:10227000005F0000000000000000000000000000FF
:10228000303039386534316631666534393830304C
:10229000003038383465343365336565343834306C
:1022A00038004344453243444532004D41544C4587
:1022B000443030004D41544C45442053484F572042
:1022C000004D41544C45442053484F57202530324F
:1022D000580A004D41544C45442050555348200065
:1022E0004D41544C454420505553482025730A0015
:1022F0004D41544C45442053455420004D41544CCD
:10230000454420434C454152004D41544C454420E6
:1023100052554E004D41544C45442053544F5000AB
:102320004D41544C45442053415645004D41544C79
:102330004544204C4F4144004338473843383E47DA
:1023400034006331353266346432303134613435CF
:102350003330003030343934626566346461396159
:10236000663030004138004331360047313652384C
:102370004732004332433843380043384538473802
:10238000004C384552384547313645313600616694
:102390006561616130303637323532353737004369
:1023A0000030303338303430343338303430343334
:1023B0003800303033383034303430383130323027
:1023C00033630030303138323830383038303830DC
:1023D0003833630030303733393538353835623586
:1023E00039353736004134004C38434547003030EA
:1023F00063396161616361636161616136390025DF
:10240000640A004C384547470038616132636330E5
:1024100030363539356630313000413136003030B4
:102420003630663036306630393066303030003025
:1024300030393062306630643039306630303000E8
:1024400030303439656265666564343934663030FD
:1024500000303034363466343665663539346630AB
:10246000300030306536346665363466653964660A
:1024700030300037303838393861386338383837D9
:10248000303030003230363061303230323032303D
:1024900066383030003730383830383038333063D1
:1024A00030663830300037303838303833303038F4
:1024B0003838373030300033303530393039303912
:1024C0003066383130303000663838306630303879
:1024D00030383838373030300037303830663038C0
:1024E0003838383838373030300066383838303897
:1024F00031303130323032303030003730383838E7
:1025000038373038383838373030300037303838AE
:10251000383838383738303837303030003730389E
:10252000383838383866383838383830300066301F
:102530003438343837303438343866303030003757
:10254000303838383038303830383837303030007C
:1025500066303438343834383438343866303030D3
:1025600000663838303830663838303830663830C1
:1025700030006638383038306638383038303830E7
:10258000303000373038383830383039383838372C
:1025900038303000383838383838663838383838D5
:1025A000383830300037303230323032303230323A
:1025B0003037303030003338313031303130313035
:1025C000393036303030003838393061306330617E
:1025D00030393038383030003830383038303830F2
:1025E0003830383066383030003838643864386114
:1025F00038613861383838303000383863386338FB
:102600006138393839383838303000373038383870
:102610003838383838383837303030006630383865
:102620003838383866303830383030300025303877
:102630006C582000202530325800202530345800B6
:07264000202530384C580042
:1026480015CD5B07E5559A15B53B121F33134905A0
:102658000300000004000000C1110000C2100000C7
:10266800D10F0000EE0E0000170E00004D0D000007
:102678008E0C0000D90B00002F0B00008E0A000002
:10268800F709000067090000E00800006108000081
:10269800E8070000770700000B070000A606000007
:1026A80047060000EC0500009705000047050000FC
:1026B800FB040000B30400007004000030040000B4
:1026C800F4030000BB03000085030000530300006F
:1026D80023030000F6020000CB020000A302000062
:1026E8007D020000590200003802000018020000B4
:1026F800FA010000DD010000C2010000A90100008C
:10270800910100007B0100006501000051010000FB
:102718003E0100002C0100001C0100000C0100001B
:10272800FD000000EE000000E1000000D400000001
:10273800C8000000BD000000B2000000A8000000B2
:102748009F0000009600000073240000842400000D
:1027580095240000A6240000B7240000C824000027
:10276800D9240000EA240000FB2400000C25000006
:102778001D2500002E2500003F25000050250000E3
:1027880061250000722500008325000094250000C3
:10279800A5250000B6250000C7250000D8250000A3
:1027A800E9250000FA2500000B2600001C26000081
:0427B800E803000032
:00000001FF
