:10000000500B0010D1140000CD140000CD140000DE
:1000100000000000000000000000000000000000E0
:10002000000000000000000000000000CD140000EF
:100030000000000000000000CD140000290A0000AC
:10004000CF140000CF140000CF140000CF14000024
:10005000CF140000CF140000CF140000CF14000014
:10006000CF140000CF140000CF140000CF14000004
:10007000CF140000CF140000CF140000CF140000F4
:10008000F9000000CF140000CF140000CF140000CE
:10009000CF140000951500000000000000000000D3
:1000A000CF140000CF140000CF14000000000000A7
:1000B000CF140000CF140000CF140000CF140000B4
:1000C000084A5168136811609168D8025160D1687C
:1000D0004340C80C484058401B0A58409160D060CB
:1000E0007047C04600000010024A1368DB431360EB
:1000F0007047C04680000150074B10B51A681C1CA1
:10010000D30707D5054B1B68002B01D0FFF7ECFF89
:100110000123236010BDC04600C0004074010010E0
:10012000034B1A68002A01D101321A607047C04699
:1001300004C00040034B1A68002A01D000221A6054
:100140007047C04604C0004008B500230F4A10495C
:1001500013700A6080210F4A13600F4A13600F4A20
:1001600013680B43136017220D4B1A600D4B1B32A3
:100170001A600D4B2F3A1A6080220C4B52021A6003
:1001800001220B4B1A70FFF7CBFF08BDC006001011
:10019000A4020010B4060010A802001080800440E1
:1001A0000CC0004018C0004014C0004000E100E056
:1001B00010E400E0F7B5664A1368002B06DD013B4A
:1001C0001360644A002B00D1C0E0C0E0624A1368AB
:1001D000002B00DDB9E0614D2C68291C601C2860F3
:1001E0002278002A02D12C605A4BACE03E2A03D17F
:1001F0005B4A1369013304E03C2A04D1584A13696D
:10020000013B1361E7E72023161C9E43331E4F2B4F
:1002100005D1A31C2B606378514A303BF1E7202ABB
:10022000D9D04C2E17D1A31C2B6067781020391C15
:100230003039019301F090FE494E7061312FCAD1DF
:10024000E31C2B60A378362B02D1353B7361C2E7E8
:10025000019B2B60BFE7432E0FD0442E0FD0452EBD
:100260000FD0462E0FD0472E0FD0412E0FD0422E4A
:100270000FD0522EAFD1533B0CE000230AE00223F3
:1002800008E0042306E0052304E0072302E0092335
:1002900000E00B23A21C0A6062782B2A01D10133F3
:1002A00004E02D2A01D1013B00E008600D682C48D4
:1002B0006C1C0C602C784269322C0ED0342C0ED081
:1002C000382C0ED0312C0ED02E2C04D1D40FA418E3
:1002D0006410121908E00D6006E0082204E0042210
:1002E00002E0022200E010220C68651C0D602578F7
:1002F0002E2D04D1D10F89184910521806E0362D41
:1003000001D1102A01D00C6000E00122114C002B19
:1003100009DB0C21056969435B18591C01D03B2B93
:1003200003DD002307E0591CFBD09B00C018816946
:100330000C4B196001232360C8239B005A43044BD4
:100340001A60054BD2101A6001E0013B1360F7BD43
:10035000A802001074010010B4060010A4020010DE
:100360000000001018C000400023C15C094AD154AD
:10037000C15C002902D00133802BF6D1064B1A60F4
:100380000322064B1A6101325A610022044B1A60A3
:100390007047C046C0060010A40200100000001004
:1003A000A8020010002210B58C5C835C002C05D0E4
:1003B000002B05D0A34203D10132F5E7012000E074
:1003C000002010BD00230278303AD1B2092904D8A8
:1003D0000A214B4301309B18F5E7181C7047031C9A
:1003E00010B51C781A1A002C03D08C4203D00133AC
:1003F000F7E701225242101C10BD10B5041C013455
:10040000631E1878002802D001F036F9F7E70A20B9
:1004100001F032F910BD034B186843425841C0B295
:100420007047C04640000150074B1A685342534181
:10043000DBB2064A002B04D05168002901D10131FA
:10044000916053607047C046400001507401001035
:100450000020034B9A68824201D0986001307047B7
:1004600074010010D021102008B5074B1960074B0C
:100470001A6882431A60064A11601A68B0390A4342
:100480001A60FFF761FE08BD9440044000800150EF
:10049000A0400440F7B50020554B18700026554B7E
:1004A000C31801301E700828F8D1D021802480277D
:1004B000514BBF001960514BBC461A68802522433E
:1004C0001A604F4A703C11601A68ED0022431A60AE
:1004D0004C4A0C3C11601A6802431A604A4A116087
:1004E0001A6822431A60494A1160494A14683C4319
:1004F0001460484C013F21601468FF3F3C43146086
:10050000454C21601C6827431F606746434C2160AF
:100510001C683C431C60D124414F3C601F682F4342
:1005200080251F603F4F2D013C601F682F43202511
:100530001F603D4F39601F682F431F603B4F39607C
:1005400040271968394319600121394B1C60136831
:100550000B431360374B49181C6013681943116033
:100560000421354B1C6013680B431360334B1C6034
:1005700013681843106032488589C289018A438A0A
:100580000127304CBC46345D2E4F0197632C05DCAF
:100590006746A740BCB22543224305E06746643C5A
:1005A000A740BCB221432343019F01240837BF5D0C
:1005B000632F03DCBC40224392B203E0643FBC40A3
:1005C00023439BB20136082EDAD143828581C28152
:1005D0000182A02012B2C005920012182DB215603F
:1005E0001BB2194A9B009B1809B21960F7BDC0469F
:1005F000A0020010B80600105040044000800050D7
:10060000304004402C4004401C400440384004402A
:1006100000800150144004406040044064400440A5
:100620006840044074400440344004404C4004405E
:10063000784004407C4004408040044090400440A6
:10064000740100103C21000000000150C243CB4364
:10065000D217DB1770B519401040072800DD0720BE
:10066000072900DD0721144E144B711AC97B0C2297
:100670009D5E10229C5E0122632902DC8A401543A4
:1006800002E064398A401443315C0122632902DCB0
:100690008A40954302E064398A4094430E215A5EB1
:1006A000A0219200C9055218156012229B5E044ACF
:1006B0009B009B181C6070BD3C2100007401001061
:1006C00000000150094A0E21535EA0219B00C9057C
:1006D0005B180C20115E19601221535E04499B00C7
:1006E0005B181021525E1A607047C04674010010FA
:1006F00000000150072310B50A4C2078C1081840AB
:10070000094B5B5C0341DB0702D5FFF79FFF01E06C
:10071000FFF7D8FF23780133DBB2402B00D1002351
:10072000237010BDA0020010B806001008B500F03C
:10073000C3FF034A034B1A60034A044B1A6008BD07
:10074000791600004C0700104D16000048070010F5
:1007500008B5011C044801F0FFFB0722034B0138D8
:100760001860034B1A6008BD00366E0114E000E00B
:1007700010E000E0034B1A6810181A688242FCDD92
:100780007047C046AC020010F8B5061C00240025D6
:10079000375D3B1C2B41DB0704D5281C211CFFF7D0
:1007A00055FF01E0FFF78EFF01200135FFF7E2FF63
:1007B000082DEED10134082CE9D1FFF783FFF8BDF5
:1007C0000023C15C024AD1540133082BF9D1704790
:1007D000B8060010F0B50023051CEA5C101C303888
:1007E000092804D920208243413A052A02D801333E
:1007F000102BF2D101221A409B1858100B1C082212
:100800005C1A121A944203DA1A5C1A700133F6E782
:10081000002489182A5D131C303B092B07D9313B72
:10082000052B03D9131C413B052B11D80A33621049
:100830008A18E60703D50F271678BE4303E00F2674
:1008400017781B013E40334301341370102CE1D163
:10085000F0BDF7B50C1C0A1C01900834002313707E
:100860000132A242FAD1019AD25C141C303C092C0C
:100870000AD9313C052C01D8573A04E0141C413CFC
:10088000052C1FD8373A141C01229446171CDD1082
:100890005E1002321640AD00AD196646AE401F40F4
:1008A000BF00F5B20326201CB61A3041061CF00723
:1008B00003D5C819865C2E438654013AF2D201331F
:1008C000102BD0D1F7BD10B50024084B00211868BB
:1008D000231C9533FF335B001952E300C018082234
:1008E000013401F063FA652CEFD110BDB0060010A1
:1008F00000238B4206DAE022D2019A181278C25401
:100900000133F6E770478021F8B5114E114B124FB5
:10091000301CC9003B60FFF7EBFF104D301C291C59
:10092000FFF740FD041E0AD0281CFFF766FDCA230E
:100930003A689B00D45E631E9C41E4B206E0291C29
:100940000822301C01F0F4F9FFF7BDFF201CF8BDB0
:10095000B0020010B8020010B0060010962100008E
:10096000802108B50248C90001F0D5F908BDC0468C
:10097000B002001080210E4A090213680D480B4393
:100980001360F02240210C4B52001A600B4A13688E
:100990008B43136002230A4A002113600122016085
:1009A000026008480360084B19601A607047C0462F
:1009B00080800440D4800440248004403882044075
:1009C000D080044070800440748004400221084AB2
:1009D00013680B431360074A491813680B431360ED
:1009E000054A013913680B43136030BF7047C04696
:1009F0000080034010ED00E03882044008B5074B4A
:100A0000074A1B68002B00D15361536901335361BE
:100A1000044A934201DDFFF7D9FF08BD40000150B1
:100A200074010010400D030008B5064A1368013335
:100A30001360FFF75FFEFFF7F7FCFFF7BBFBFFF765
:100A4000DDFF08BDAC0200100023F0B5AFB00022FE
:100A50000EAE9A550133802BF9D1002304A95354CB
:100A60000132082AF9D1FF21914AD1540133082BD0
:100A7000F9D100273D1C3C1C019700228D4B5A6187
:100A800000F0DEFD002800D1D8E000F0DFFD0A28EC
:100A900000D0CAE000233355874C301C211CFFF7DF
:100AA00081FC002820D0002304AA985C990006AAA3
:100AB00001338850082BF7D104A911A8FFF78AFE4B
:100AC0000290201C00F068FF0024029B9C4207DA81
:100AD000A20006AB7948D15800F05EFF0134F4E77C
:100AE000774800F059FF66E0301C7649FFF75AFC62
:100AF000041E22D011A8FFF765FC0F2302111A4033
:100B0000111C03403731092A01DC3032111C1A1C38
:100B100006A801703732092B01DC30331A1C00247F
:100B200004AB1B7804A9427084700293FFF752FE55
:100B30006548029900F030FFA2E7301C6349FFF7D7
:100B400031FC0290002838D0332304AA9B18181CCB
:100B5000FFF738FC0390652892D8332304AA9B182A
:100B6000181C2021FFF73BFC002889DB332304AA53
:100B70009B1801301B180293554C039B0298D90017
:100B800023685918FFF765FE029804A9FFF761FE74
:100B900002982021FFF723FC6422002805DB029B3A
:100BA00001301818FFF70EFC021C039B21689533D7
:100BB000FF335B005A52002462E7301C4549FFF7BF
:100BC000F1FB041E02D0FFF77EFE15E0301C424907
:100BD000FFF7E8FB0290002804D04048FFF70DFC27
:100BE00001254DE7301C3E49FFF7DCFB0390002850
:100BF00004D03C48FFF701FC029DDCE7301C3A4979
:100C0000FFF7D0FB041E03D0FFF7AAFE374809E028
:100C1000301C3749FFF7C6FB002800D130E7FFF74B
:100C200072FE3448FFF7E9FBC5E70D2800D127E73E
:100C30007E2C00DD24E73055013421E70295002D9C
:100C40000ED104AB5B5D1A4843550135082DF8D130
:100C5000FFF7B6FD00223B1C02921F1C029D0CE711
:100C60001B4DF8002B681818FFF78EFD019B2968B3
:100C7000013301933B1C9533FF335B005A5E0198AF
:100C80003B1C9042E9DB01331A1C653A501E82413D
:100C9000524213401A1C9532FF325200525E002A13
:100CA00001D0002202E09F42EDD102920192D4E7EE
:100CB00040070010740100109F2100002D25000046
:100CC00014230000AC210000B9210000C92100005C
:100CD000B0060010D5210000E2210000E92100004B
:100CE000ED210000F4210000F921000000220000A5
:100CF000052200000C220000F0B585B00C1C02A9F2
:100D000001930092FFF7A5FD0023019A93421FDA99
:100D10000099009A8E1A0A9A964217DA1A19072A27
:100D200012D8072910D80122171C944602AD5D5D28
:100D30008F403541664607482018C25CBA43C2540A
:100D4000354201D03A43C2540131E2E70133DCE7D6
:100D500005B0F0BD40070010F0B595B0AD48FFF705
:100D600003FBFFF775FBAC4CAC4E201C311CFFF7AE
:100D700070FD301CFFF724FDFFF76AFB0394002889
:100D800002D1FFF79DF9EEE7A54C0023251C236057
:100D90006420FFF7EFFCA34B1B68002B05D12A68EA
:100DA000A14B9A42F4DD15B0F0BD002323609F4BA8
:100DB00010A91A1C103231CA31C1126820330A60DE
:100DC0000EAA03CB03C29A48FFF7CEFA08250024E7
:100DD0000027331901341F70082CF9D12A1C0398FD
:100DE000083A391C231C0094FFF786FF2A1C391C83
:100DF000231C90480094FFF77FFF301CFFF7E0FCB6
:100E0000C82068439130FF30013DFFF7B3FCBD427D
:100E1000DDD1FFF755F9032318400490FFF750F98F
:100E200001232E1C18400390FFF712FB0F23371CE1
:100E30000B9608960A930793059609960696002442
:100E40000022764BE31801341A70082CF8D10722DF
:100E50001020089B0CA913400C93069B0C9A9B0036
:100E600000940918C858524200210423FFF744FF98
:100E70001020049B0C9A0CA99B0000940918C858D8
:100E8000A21A00210423FFF737FF072208200B9B3B
:100E90000CA913400C93099B00949B000918C85897
:100EA00004210C9A0B1C5242FFF726FF0821039BDA
:100EB0000CAA52189B00D35804390D930C9B0D9823
:100EC000E21A00940B1CFFF717FF5448FFF778FC59
:100ED0000A20FFF74FFC002F06D1FFF7B9FA0028D0
:100EE00003D05548FFF740FA0127059B002B30D16E
:100EF000079B01359D422CD1089B013308935B076A
:100F000017D14E48FFF730FAFFF7DAF8062101F063
:100F100019F8059B032900D80B1C002F0CD06A0080
:100F20000792642A0EDC049A002506920493012796
:100F30000FE00795059D0CE0049A0795069204932F
:100F40003D1C06E00025049A049301232F1C069201
:100F500005930A9B741C9C4205D0099A261C039B8E
:100F60000A9C039208E00B9B01330B935B0708D0AC
:100F70000026099A039B0392039A0A940992039309
:100F80005DE7059B012B02D12C48FFF7EDF9FFF738
:100F900097F80323059A1840434243410026012A4B
:100FA000EAD1B74201D13E1CE6E76400642C01DCC3
:100FB000059FE1E7069B039A21481343B34204D0FF
:100FC000039B2048012B00D01F48FFF7CDF9FFF706
:100FD0003FFA082407220899069B0A409B000094C8
:100FE00010A95858524200210423FFF785FE04211E
:100FF00000220B1C0D980094FFF77EFE0748FFF7B8
:10100000DFFB6420FFF7B6FBFFF722FA0028E0D0F1
:10101000A4E6C046112200001B2200004007001079
:10102000AC02001040000150102700003C210000DD
:10103000572200002C2200003D2200004022000028
:10104000442200004C22000053220000F8B5614801
:10105000FFF78AF9FFF7FCF95F4C6048211CFFF7A6
:10106000F8FB201CFFF7ACFBFFF7F2F90028F3D0E8
:101070005B4E0023351C33606420FFF77BFB594B2C
:101080001B68002B04D12A68574B9A42F4DDF8BD47
:10109000564D281CFFF768F9211C5548FFF7D9FB6E
:1010A000201CFFF78DFB5048FFF764FB281CFFF75F
:1010B0005BF9211C4F48FFF7CCFB201CFFF780FB9E
:1010C0004948FFF757FB281CFFF74EF9211C4A48F7
:1010D000FFF7BFFB201CFFF773FB4348FFF74AFBFA
:1010E0004648FFF741F9211C4548FFF7B2FB201C99
:1010F000FFF766FB3C48FFF73DFB0023FF22E2546D
:101100000133082BFAD13F48211CFFF7A2FB201C1A
:10111000FFF756FB00231D1C3360FFF799F9071EEC
:101120000CD0002D0AD13848FFF71EF92B1C0021E6
:10113000E21801331170082BF9D107E0201CFFF7EA
:101140003FFB0A20FFF716FB3D1CE6E730682F49FE
:1011500000F002FF6430C317C5182D485D40FFF74B
:1011600003F9211C2B48FFF774FB31682A4E301C11
:1011700000F012FC301C291C00F00EFC281C0A2177
:1011800000F0EAFE254E80003018211C8068FFF731
:1011900060FB4022A379201C1343A371FFF710FBCF
:1011A0001148FFF7E7FA281C0A2100F0BBFF89006D
:1011B00071188868211CFFF74CFB201CFFF700FB0F
:1011C0000948FFF7D7FA201CFFF7FAFA0648FFF79D
:1011D000D1FA3CE75A2200004007001067220000C5
:1011E000AC020010400001501027000078220000DF
:1011F0007A2200008B2200009C220000492200007D
:10120000AD220000BE220000CF220000C8FBFFFF7D
:10121000D2220000D8220000C521000000010010E9
:10122000F8B56048FFF7A0F8FFF712F95E4C5F4889
:10123000211CFFF70EFB201CFFF7C2FAFFF708F98D
:101240000028F3D05A4F00233D1C3B606420FFF779
:1012500091FA584B1B68002B04D12A68564B9A42CE
:10126000F4DDF8BD554D281CFFF77EF8211C5448CD
:10127000FFF7EFFA201CFFF7A3FA4F48FFF77AFABF
:10128000281CFFF771F8211C4E48FFF7E2FA201CDA
:10129000FFF796FA4848FFF76DFA281CFFF764F845
:1012A000211C4948FFF7D5FA201CFFF789FA42486C
:1012B000FFF760FA4548FFF757F8211C4448FFF74D
:1012C000C8FA201CFFF77CFA3B48FFF753FA0023CB
:1012D000FF22E2540133082BFAD10025201CFFF72E
:1012E0006FFA3D60FFF7B4F8FFF7B2F80028FBD0C3
:1012F0003848FFF739F80122E9108A400723111C0A
:101300002B40E25C201C8A430135E254FFF758FA77
:10131000402DE9D13048FFF727F83048211CFFF76E
:1013200098FA2F4E3968301C00F036FB3B682D4888
:10133000D917890EC918891100F00EFE051C301C42
:10134000291C00F029FBFA2D00D9FA25281C0A21B6
:1013500000F072FD244E80003018211C8068FFF7D9
:1013600078FA4022A379201C1343A371FFF728FACF
:101370001148FFF7FFF9281C0A2100F0E3FD89005E
:1013800071188868211CFFF764FA201CFFF718FA0F
:101390000948FFF7EFF9201CFFF712FA0648FFF79C
:1013A000E9F93EE7E922000040070010EF220000C3
:1013B000AC0200104000015010270000782200000D
:1013C0007A2200008B2200009C22000049220000AB
:1013D000AD22000000230000D2220000D82200002D
:1013E000C5210000A086010000010010F7B50A2603
:1013F00000900191009D019A009B083AEB1A9342DC
:1014000027DA0023174A5361174A1478FF21D15471
:101410000133082BFAD10023EA5C1348C25401338C
:10142000082BF9D1FFF7CCF91048211C00F0B4FAD1
:101430005A270A20FFF79EF9FFF70AF8041E0DD17C
:1014400000F0FEF800280AD1013F002FF1D101354C
:10145000D1E7013E002ECDD1FFF7B8FA0124201CC0
:10146000FEBDC046740100104007001004230000B8
:1014700008B5FFF70FF8FEF7F5FF0F4A0F4B1A609C
:1014800007220F4B1A60FFF751F90E4B1B68002B18
:1014900009D16420FFF76EF9F7E7FFF75DFCFFF76E
:1014A000BFFEFFF7D3FD084832212830FFF79EFF2B
:1014B0000028F2D1FFF7C8FACF07000014E000E0DF
:1014C00010E000E0400001503C210000FEE7FEE794
:1014D0000022012403261E4B1E481A601E4B1F4D7E
:1014E00002601A601C602968B143214329601C49CD
:1014F0000A601C490A600C6081211B4A7F3411601C
:101500001A490A68A2430A601A1C0121184B1B6879
:101510000B42FAD0174B19600323036000231360BA
:1015200011601549154A1160154A16499A188A42E0
:1015300004D21549C95804331160F5E7134B144A16
:10154000934202D2002204C3F9E7FFF791FFFEE7BE
:1015500050810440708004407480044010C00340F7
:1015600040800440448004400880044038820440A5
:101570000C800440788004405F00010080800440BB
:1015800000000010740100104025000074010010DC
:101590005007001070B5254B1B68DBB2DA0743D447
:1015A00007221340022B1CD0214C042B38D1214898
:1015B000051C438881889BB289B22268D2070BD56B
:1015C0001D4A12687F29F8DC5E1CD2B2EB181A7231
:1015D0007F2301313340F0E79AB28BB2428083809F
:1015E000D9E716498A890C1C92B2002A16D0101C21
:1015F0000B8910389BB25D1CE3181B7C0E4EDBB2CE
:1016000033607F23013A2B40824202D0002AF2D17C
:10161000101C9BB280B20B818881BCE7CA81BAE7FB
:101620002368054B1B68B6E770BDC04608800040C4
:10163000148000408C010010008000400C0200105B
:10164000014B988880B270478C010010094B9A8832
:10165000002AFBD01A8892B29918087A7F210132A9
:101660000A40C0B21A8072B69A88013A92B29A8041
:1016700062B670478C0100100D4B9A897F2AFBD807
:1016800072B6DA89002A0CD05A8992B29918087475
:101690007F2101320A405A819A89013292B29A819D
:1016A00003E00122DA81034B186062B67047C0463E
:1016B0000C0200100080004010B572B6D1238021CA
:1016C000194A49011360194A04241360184A194839
:1016D00013680B4313600222174B18491A608323C7
:1016E000174A136000230B600460164881340460BD
:1016F00003201060144A84301060144A07381060C8
:10170000134A138153819381D381124A13805380EA
:101710009380C02207330B600F4B1A7080220F4B4F
:1017200092031A6062B610BDA8400440A440044071
:101730008080044000800040988004400480004085
:101740000C8000402880004008800040308000402D
:101750000C0200108C01001015E400E000E100E034
:1017600010B5041E0A2C02D10D20FFF7F9FF074A1D
:101770001368002B03D0591C11601C7005E0044B4A
:101780001B68002B01D0201C984710BD9C02001044
:101790004C07001010B5041C2078002803D0013439
:1017A000FFF7DEFFF8E710BDF0B5071C0C1C8BB08F
:1017B0003878002800D1DCE0252801D0013776E018
:1017C0007E78302E03D1FB1CBE78012207E02D2E3F
:1017D00002D0BB1C002202E00222BE78FB1C009259
:1017E00000220292321C303A1F1C092A08D80A2211
:1017F00002994A439619303E02961E780133F1E76A
:101800002022311C91430A1E4C2A05D10099483AE6
:1018100011431E7800910137002E00D1A9E0331E3C
:10182000602B01D9203BDBB24F2B14D008D8432BBF
:1018300033D0442B3FD002220392422B3DD035E0DF
:10184000552B38D0582B2FD0532B2FD12568231D43
:1018500001932B1C01E008222EE05C1B01335A1E71
:101860001278002AF9D1009B9B0709D4029B661CC1
:101870009C4204D22020FFF773FF341CF3E7341C92
:10188000281CFFF787FF029B9C4201D3019C8FE736
:101890002020FFF765FF0134F5E72068231DC0B263
:1018A0000193FFF75DFFF1E7102205E0301CFFF721
:1018B00057FF0194EAE70A220392221D019225684C
:1018C000442B06D1002D04DA0823009A6D421A43F6
:1018D000009200230493281C039900F033FB281C7A
:1018E000CBB20C1C0399059300F0A6FA051C092C39
:1018F00007D92723782E00D0203B059A9B18DBB20E
:101900000593049B04995C1C059B06AA3033535431
:10191000002D03D0102C01D00494DCE7009B1B07A2
:1019200003D52D2306AA1355013430230393009BBE
:10193000DB0701D420230393251C009B9B0709D4BC
:10194000029B6E1C9D4204D20398FFF709FF351CD1
:10195000F3E7351C013C06AB185DFFF701FF002CD7
:10196000F8D1029B9D4291D22020FFF7F9FE01356C
:10197000F7E70BB0F0BD074B70B50D1C1C1C1E68C3
:1019800018602878002803D00135FFF7E9FEF8E752
:10199000266070BD4C0700100FB407B504A901C93B
:1019A0000191FFF701FF03B008BC04B018470EB463
:1019B00017B505A908C9074C01912060181CFFF74D
:1019C000F3FE002322681370236017BC08BC03B029
:1019D0001847C0469C0200100EB433B5064C05A94A
:1019E00008C925682060181C0191FFF7DDFE2560FD
:1019F00033BC08BC03B018474C07001070B5041C7A
:101A00001D481E1C151CFFF7C7FF022E1FD0042EF9
:101A100026D0012E2BD1261C331BAB4205DA3178A0
:101A20001648FFF7B9FF0136F6E72020FFF798FECA
:101A3000261C331BAB421ADA33782E201A1C203AAC
:101A40005E2A00D8181CFFF78BFE0136F1E72188CB
:101A50000B48013DFFF7A0FF0234002DF7D106E04F
:101A6000084802CC013DFFF797FF002DF8D10A206E
:101A7000FFF776FE70BDC046252500002C2500002E
:101A80003225000038250000F7B50024144D061C4F
:101A90002B680191A3420AD100201FE00D2817D026
:101AA000082809D1002C02D0013CFFF759FE2B6811
:101AB00098470028F2D1EFE71F28F8DD019B013B92
:101AC0009C42F4DA3055671CFFF74AFE3C1CEEE7F7
:101AD00000230A203355FFF743FE0120FEBDC04618
:101AE0004807001038B5044C25682060081C111CFC
:101AF000FFF7CAFF256038BD480700100023021C0D
:101B000070B50B6010680378202B02D10130106093
:101B1000F8E700252D2B03D1431C136043780135D2
:101B2000302B1BD11068431C13604378622B06D006
:101B3000782B09D1831C13608378102613E0831C53
:101B40001360837802260EE00120202B29D9181C6F
:101B500030380826092806D9002022E0181C303821
:101B60000928F9D80A260024202B15D9602B01D981
:101B7000203BDBB2181C3038C0B2102803D9373BE9
:101B8000D8B20928E8D9B042E6D2744313680419E0
:101B9000581C10605B78E7E7002D00D064420120FC
:101BA0000C6070BD372300B58BB00093684605A963
:101BB000024B984706980BB000BDC046F11FFF1FAF
:101BC000362300B58BB00093684605A9024B9847B1
:101BD00006980BB000BDC046F11FFF1F3A2300B5A9
:101BE0008BB00093684605A9024B984706980BB046
:101BF00000BDC046F11FFF1F352300B58BB0009319
:101C000001900291684605A9024B984705980BB0D0
:101C100000BDC046F11FFF1F342300B58BB00093F9
:101C2000054B019002910393684605A9034B984721
:101C300005980BB000BDC046C05D0000F11FFF1F3E
:101C4000322300B58BB0009301900291684605A93C
:101C5000024B984705980BB000BDC046F11FFF1F0F
:101C6000332300B58BB00093054B01910290049390
:101C70006846039205A9034B984705980BB000BD31
:101C8000C05D0000F11FFF1F382300B58BB000932B
:101C9000019102900392684605A9024B9847059866
:101CA0000BB000BDF11FFF1F38B5051C07200C1C31
:101CB000011CFFF7A1FF002806D10720011CFFF738
:101CC000BFFF00280ED01FE00720011CFFF7B8FF60
:101CD00000281BD10730011CFFF79EFF0028ECD025
:101CE000022016E0E021281CC901221CFFF7B8FFE2
:101CF00000280DD1E021281CC901221CFFF7C4FFD8
:101D0000002807D0052004E0032002E0012000E0C5
:101D10000420404238BD08B572B6FFF7C5FF62B671
:101D200008BDE020C0017047802040017047C046D8
:101D300070B50F2A32D9041C0C430B1CA40731D1F7
:101D4000151C041C103D2D0901352D0149191E6873
:101D500026605E6866609E68A660DE681033E66096
:101D600010349942F3D10F2345191340032B1BD98B
:101D70001C1F0023A4080134A400CE58EE500433E5
:101D8000A342FAD1ED18C91803231A4005D0002345
:101D9000CC5CEC5401339342FAD170BD051C002A8F
:101DA000F5D1FAE7051CF2E71A1CF8E770B58307CE
:101DB0003FD0541E002A3BD0CEB2031C032503E0C3
:101DC000621E002C34D0141C01335A1E16702B4294
:101DD000F6D1032C24D9FF250D402A0215432A04ED
:101DE00015430F2C11D9261C103E36090136360139
:101DF0001A1C9B19156055609560D560103293428E
:101E0000F8D10F221440032C0AD9261FB608013638
:101E1000B6001A1C9B1920C29342FCD10322144025
:101E2000002C05D0C9B21C1919700133A342FBD193
:101E300070BD141C031CCCE7002243088B4274D3F2
:101E400003098B425FD3030A8B4244D3030B8B42BB
:101E500028D3030C8B420DD3FF22090212BA030CC4
:101E60008B4202D31212090265D0030B8B4219D3A5
:101E700000E0090AC30B8B4201D3CB03C01A5241C5
:101E8000830B8B4201D38B03C01A5241430B8B420D
:101E900001D34B03C01A5241030B8B4201D30B03F6
:101EA000C01A5241C30A8B4201D3CB02C01A52411D
:101EB000830A8B4201D38B02C01A5241430A8B42E0
:101EC00001D34B02C01A5241030A8B4201D30B02C9
:101ED000C01A5241CDD2C3098B4201D3CB01C01AE3
:101EE000524183098B4201D38B01C01A52414309ED
:101EF0008B4201D34B01C01A524103098B4201D3DB
:101F00000B01C01A5241C3088B4201D3CB00C01A47
:101F1000524183088B4201D38B00C01A52414308BF
:101F20008B4201D34B00C01A5241411A00D20146E4
:101F3000524110467047FFE701B5002000F0FCF861
:101F400002BDC0460029F7D003B5FFF775FF0EBCF0
:101F50004243891A1847C04603460B437FD40022E8
:101F600043088B4274D303098B425FD3030A8B422D
:101F700044D3030B8B4228D3030C8B420DD3FF2297
:101F8000090212BA030C8B4202D31212090265D065
:101F9000030B8B4219D300E0090AC30B8B4201D318
:101FA000CB03C01A5241830B8B4201D38B03C01A5F
:101FB0005241430B8B4201D34B03C01A5241030BD6
:101FC0008B4201D30B03C01A5241C30A8B4201D387
:101FD000CB02C01A5241830A8B4201D38B02C01A32
:101FE0005241430A8B4201D34B02C01A5241030AA9
:101FF0008B4201D30B02C01A5241CDD2C3098B428E
:1020000001D3CB01C01A524183098B4201D38B010A
:10201000C01A524143098B4201D34B01C01A5241AD
:1020200003098B4201D30B01C01A5241C3088B42F2
:1020300001D3CB00C01A524183088B4201D38B00DD
:10204000C01A524143088B4201D34B00C01A52417F
:10205000411A00D201465241104670475DE0CA0F56
:1020600000D04942031000D34042534000229C4616
:1020700003098B422DD3030A8B4212D3FC22890120
:1020800012BA030A8B420CD3890192118B4208D3F6
:10209000890192118B4204D389013AD0921100E058
:1020A0008909C3098B4201D3CB01C01A524183096C
:1020B0008B4201D38B01C01A524143098B4201D399
:1020C0004B01C01A524103098B4201D30B01C01AC4
:1020D0005241C3088B4201D3CB00C01A524183083E
:1020E0008B4201D38B00C01A5241D9D243088B4294
:1020F00001D34B00C01A5241411A00D20146634637
:1021000052415B10104601D34042002B00D549429A
:10211000704763465B1000D3404201B5002000F0D9
:102120000BF802BD0029F8D003B5FFF715FF0EBC70
:102130004243891A1847C0467047C04604026D03DF
:10214000646C05670608096607650B0A2C22000007
:1021500038230000492300005A2300001623000002
:102160002723000000000000000000BE80B8A8A8DF
:1021700080BE88B880BA00B8A8F800B8A8B880BEF9
:10218000A29C80B8A8B880849EA400000000000033
:102190000000000000004D41544C45443030004DDB
:1021A00041544C45442053484F5720004D41544C16
:1021B0004544205055534820004D41544C4544203F
:1021C000505553482025640A004D41544C45442045
:1021D00053455420004D41544C454420434C454107
:1021E00052004D41544C45442052554E004D4154EF
:1021F0004C45442053544F50004D41544C454420CD
:1022000053415645004D41544C4544204C4F4144A8
:10221000004338473843383E47340063313532662F
:102220003464323031346134353330003030343955
:10223000346265663464613961663030004138006B
:102240004331360047313652384732004332433843
:10225000433800433845384738004C3845523845F4
:10226000473136453136006166656161613030362F
:102270003732353235373700430030303338303479
:102280003034333830343034333800303033383051
:10229000343034303831303230336300303031381C
:1022A00032383038303830383038336300303037F7
:1022B00033393538353835623539353736003034CD
:1022C000334532463536364144364143373800418E
:1022D00034004C38434547003030633961616163F5
:1022E0006163616161613639004C384547470038A8
:1022F00061613263633030363539356630313000F4
:10230000413136004D41544C45442053484F5720ED
:10231000253032580A00303036306630363066307C
:1023200039306630303000303039306230663064F9
:1023300030393066303030003030343965626566AF
:1023400065643439346630300030303436346634C5
:10235000366566353934663030003030653634667F
:102360006536346665396466303000373038383960
:1023700038613863383838373030300032303630F2
:1023800061303230323032306638303000373038F9
:1023900038303830383330633066383030003730DA
:1023A0003838303833303038383837303030003320
:1023B00030353039303930393066383130303000EE
:1023C000663838306630303830383838373030306A
:1023D00000373038306630383838383838373030B1
:1023E00030006638383830383130313032303230C1
:1023F00030300037303838383837303838383837B8
:1024000030303000373038383838383837383038AE
:102410003730303000373038383838383866383868
:102420003838383030006630343834383730343863
:10243000343866303030003730383838303830385B
:10244000303838373030300066303438343834384B
:1024500034383438663030300066383830383066DA
:1024600038383038306638303000663838303830F8
:102470006638383038303830303000373038383817
:102480003038303938383837383030003838383824
:1024900038386638383838383838303000373032E5
:1024A0003032303230323032303730303000333842
:1024B0003130313031303130393036303030003831
:1024C000383930613063306130393038383030007D
:1024D000383038303830383038303830663830308E
:1024E00000383864386438613861386138383830D9
:1024F000300038386338633861383938393838381B
:10250000303000373038383838383838383838379D
:102510003030300066303838383838386630383047
:1025200038303030002530386C58200020253032CB
:0F2530005800202530345800202530384C5800F2
:1025400015CD5B07E5559A15B53B121F33134905A9
:102550000300000004000000C1110000C2100000D0
:10256000D10F0000EE0E0000170E00004D0D000010
:102570008E0C0000D90B00002F0B00008E0A00000B
:10258000F709000067090000E0080000610800008A
:10259000E8070000770700000B070000A606000010
:1025A00047060000EC050000970500004705000005
:1025B000FB040000B30400007004000030040000BD
:1025C000F4030000BB030000850300005303000078
:1025D00023030000F6020000CB020000A30200006B
:1025E0007D020000590200003802000018020000BD
:1025F000FA010000DD010000C2010000A901000095
:10260000910100007B010000650100005101000004
:102610003E0100002C0100001C0100000C01000024
:10262000FD000000EE000000E1000000D40000000A
:10263000C8000000BD000000B2000000A8000000BB
:102640009F000000960000006B2300007C23000028
:102650008D2300009E230000AF230000C023000054
:10266000D1230000E2230000F32300000424000033
:102670001524000026240000372400004824000010
:10268000592400006A2400007B2400008C240000F0
:102690009D240000AE240000BF240000D0240000D0
:1026A000E1240000F22400000325000014250000AE
:0426B000E80300003B
:00000001FF
